:02000000FA2FD5
:100A8A0032340C3083120313970092011215831625
:100A9A000313861108008316031386140430980082
:100AAA0080308312031398001930831603139900B8
:100ABA0008008316031381018B0108308E0007306A
:100ACA00831203139F00FF30831603138500FF3040
:100ADA0086000800F1018312031318168C1E7D2D5F
:100AEA001A08F0007008F100981818127108080026
:100AFA009818181200300800831203132608F00011
:100B0A002708F100F201F3010030F7000F30F60078
:100B1A004230F5004030F400C2267008FF3E8316CA
:100B2A00031392000800F401F501701CA22D72084B
:100B3A00F4070318F50A7308F50701300310F20DDC
:100B4A00F30DFF3E031DA32D01300310F10CF00C31
:100B5A00FF3E031DAA2D71087004031D9A2D750806
:100B6A00F101F1077408F001F0070800FA01FB012E
:100B7A007708F101F1077608F001F0074730F20033
:100B8A000030F30098257108F901F9077008F80197
:100B9A00F807FA01FB0179087B02031DD62D7808B4
:100BAA007A02031808000130FA070318FB0A00301A
:100BBA00FB07D02DF501F601710870040319162EF2
:100BCA00F701F70AF11BF52D01300310F00DF10DB5
:100BDA00FF3E031DEA2D0130F4007408F707E72DE4
:100BEA0001300310F50DF60DFF3E031DF62D7108B9
:100BFA007302031D022E70087202031C0B2E70086A
:100C0A00F2027108031CF303F30275140130031096
:100C1A00F10CF00CFF3E031D0C2E0130F702031DF0
:100C2A00F52D7608F101F1077508F001F0070800C3
:100C3A00FA00831603131208013EF000003003186D
:100C4A000130F1007A08F800F9017808F200790811
:100C5A00F30098257108FC01FC077008FB01FB07EB
:100C6A001930F0000030F1007C08F301F3077B082B
:100C7A00F201F207DF257108FC01FC077008FB018D
:100C8A00FB07FF30FB050330FC057C08F9007B08F5
:100C9A00F8000310F90CF80C0310F90CF80C78089A
:100CAA008312031395007B080339F80003300310FD
:100CBA00F80DFF3E031D5C2E0310780DF90079082C
:100CCA00970408005E2550254625503083120313E9
:100CDA00A600C330A70081254625831203132908DD
:100CEA001D266F25FD007D0883120313A80028081E
:100CFA000319872E2808FD007D08A90029081D264A
:100D0A0083120313063083120313A0000030A100DC
:100D1A000430FD007D08A2000A30A3000030A400C0
:100D2A00A5015127013A031DA62E5330831203133E
:100D3A0029020318A62E0130FD007D08A9072908FB
:100D4A001D26063083120313A0000030A1000730CD
:100D5A00FD007D08A2000A30A3000030A400A5010E
:100D6A005127013A031D762E0C30831203132902F0
:100D7A00031C762E0130A902742E83120313A101DB
:100D8A00F31FD42EF009F109F209F309F00A031945
:100D9A00F10A0319F20A0319F30AA101A10AF71FBA
:100DAA00E52EF409F509F609F709F40A0319F50A13
:100DBA000319F60A0319F70A0130F8007808A106A0
:100DCA000030A5000030A4000030A3000030A200CB
:100DDA00730872047104700403193A2FA001A00A5F
:100DEA00F31B052F0130F8000310F00DF10DF20D81
:100DFA00F30DF80BF92E0130F8007808A007F52E4C
:100E0A000130F8000310A20DA30DA40DA50DF80BD7
:100E1A00072F73087702031D1C2F72087602031D21
:100E2A001C2F71087502031D1C2F70087402031C05
:100E3A002D2F7008F4027108031C710FF502720855
:100E4A00031C720FF6027308031C730FF7022214B5
:100E5A0001300310F30CF20CF10CF00CFF3E031DF1
:100E6A002E2F0130A002031D052F21080319482F38
:100E7A00A209A309A409A509A20A0319A30A031925
:100E8A00A40A0319A50A2508F3002408F200230876
:100E9A00F1002208F000080083120313A508031DBD
:100EAA00A52F200884008317211C83130130FC001E
:100EBA00220A612F0310FC0DFF3E031D5F2F7C08E1
:100ECA000005031DA52FA601A60A2408F701F707A6
:100EDA002308F601F607BB258312031320088400B2
:100EEA008317211C83130130FC00220A7E2F031072
:100EFA00FC0DFF3E031D7C2F7C080005031D8B2F74
:100F0A002608013A031D8B2FA701A70A200884008F
:100F1A008317211C83130130FC00220A962F031029
:100F2A00FC0DFF3E031D942F7C0800050319712F49
:100F3A002708013A031D712FA701A60101300800F5
:100F4A002508013A031DF82F200884008317211C65
:100F5A0083130130FC00220AB42F0310FC0DFF3E5C
:100F6A00031DB22F7C0800050319F82FA601A60A53
:100F7A002408F701F7072308F601F607BB258312B1
:100F8A000313200884008317211C83130130FC00FB
:100F9A00220AD12F0310FC0DFF3E031DCF2F7C0820
:100FAA0000050319DE2F2608013A031DDE2FA701CB
:100FBA00A70A200884008317211C83130130FC0030
:100FCA00220AE92F0310FC0DFF3E031DE72F7C08C0
:100FDA000005031DC42F2708013A031DC42FA701CA
:100FEA00A6010130080000300800831203134525CA
:060FFA00A9008301672E2F
:02400E0018FF99
:00000001FF
