:04000000B5EF05F063
:1006000000204F686D696D6574726F2076312E30F1
:1006100020004C6967616E646F2E2E2E0056616C4F
:100620006F723A200000000E136E000E126E000E64
:10063000116E0EC001F00FC002F0000E046E640EC9
:10064000036E6EEC04F00150136E1350640DF31E34
:10065000F41EF34AF42A0E50F324016E0F50F420D6
:10066000026E000E046E0A0E036E6EEC04F0015072
:10067000126E12500A0DF3CF10F01350640DF350A8
:10068000102400080E24116EC80E6DEC05F01350F6
:100690009DEC03F05BEC05F012509DEC03F05BEC7D
:1006A00005F0CB0E6DEC05F011509DEC03F05BEC0A
:1006B00005F012007FEC05F0DEEC04F09CEC04F099
:1006C00019EC05F09CEC05F0000E166E000E176E8E
:1006D000000E186E000E1A6E000E196E190EFDEC4B
:1006E00004F000D0000E1C6E000E1B6E1CBE08D065
:1006F0001C5010E1020E1B5CD8B00CD001D00AD007
:10070000010E086EF40E076EBDEC04F01B4A1C2AA5
:10071000EDD700D040EC04F006C019F007C01AF085
:1007200019501A10D8B4DED719C00EF01AC00FF045
:1007300013EC03F0D7D700EF00F0016E15D034D0E2
:1007400035D0310E33D0320E31D0330E2FD0340E9F
:100750002DD0350E2BD0360E29D0370E27D0380E9F
:1007600025D0390E23D020D00150000AD8B41CD097
:10077000010AD8B4E6D7030AD8B4E5D7010AD8B439
:10078000E4D7070AD8B4E3D7010AD8B4E2D7030AFA
:10079000D8B4E1D7010AD8B4E0D70F0AD8B4DFD76C
:1007A000010AD8B4DED700D0300E00D01200000EFF
:1007B000126E000E136E000E146E03D0132A122A4E
:1007C00000D01350010D0EC010F00FC011F0F35007
:1007D0001026F450112210C0F6FF11C0F7FF0800D8
:1007E000F5500009D8A4EAD7000E146E14D01450A6
:1007F000010D0EC010F00FC011F0F3501026F45090
:10080000112210C0F6FF11C0F7FF0800F5505BEC95
:1008100005F0142A00D01250145CD8A0E8D71200BA
:100820008290000E086E1E0E076EBDEC04F0030EE3
:10083000836E82828292000E086E1E0E076EBDECE1
:1008400004F0030E836E82828292000E086E1E0EEA
:10085000076EBDEC04F0030E836E82828292000E5E
:10086000086E1E0E076EBDEC04F0020E836E8282CF
:100870008292000E086E010E076EBDEC04F01200AD
:10088000000E086E000E0A6E000E096EC2EC05F036
:10089000D10EA9EC05F00009D8A407D0BEEC05F0F4
:1008A000000E076E000E066E18D0010E32EC05F039
:1008B00002500C6E010E32EC05F002500B6EBEECD5
:1008C00005F00C500A6E096A0B500926000E0A2228
:1008D00009C006F00AC007F000D01200000E066E34
:1008E000000E056E03500410D8B421D0010E076E1F
:1008F00005D0D89003360436072A00D004BE02D0B3
:10090000F8D700D0D890053606360350015C045065
:100910000258D8A006D00350015E0450025A058048
:1009200000D0D89004320332072EECD700D005C097
:1009300001F006C002F01200010E6DEC05F0120E7F
:100940000E6E060E0F6ED7EC03F0C00E6DEC05F0C8
:10095000000E156E0F0E156401D00BD0FF0E5BEC70
:1009600005F0000E086E5A0E076EBDEC04F0152A55
:10097000F1D7010E6DEC05F01200000E0C6E000EAA
:100980000B6E07C001F008C002F0000E046E8E0E60
:10099000036E47EC05F001C009F002C00AF0000E3A
:1009A0000C6E000E0B6E03D00B4A0C2A00D00950BF
:1009B0000B5C0A500C58D8A0F7D7120010EC04F0CA
:1009C000020E836E82828292080E836E82828292EF
:1009D000000E086E020E076EBDEC04F0000E836E72
:1009E000828282920C0E836E82828292000E086E48
:1009F000020E076EBDEC04F012000D6E000E0E6EBE
:100A000000D0C2EC05F0D00EA9EC05F00D50A9EC19
:100A100005F00E6EBEEC05F0000E086E0A0E076EB5
:100A2000BDEC04F00E04D8B403D0EBD701D0E9D765
:100A30001200010E6DEC05F0010E0E6E060E0F6E2B
:100A4000D7EC03F0C00E6DEC05F01D0E0E6E060E19
:100A50000F6ED7EC03F0CA0E6DEC05F02C0E5BECBC
:100A600005F01200046E8EEC05F0C5868EEC05F0E4
:100A7000C9CF05F08EEC05F00450D8B402D0C59A69
:100A800001D0C58AC58805C002F0036A1200015072
:100A90000302F3CF05F0F4CF06F001500402F35047
:100AA000062602500302F350062605C001F006C0D8
:100AB00002F000D012000D6E82800D380F0B836E95
:100AC000828282920DC083FF82828292000E086E23
:100AD000020E076EBDEC04F012000D6E82900D3810
:100AE0000F0B836E828282920DC083FF828282927C
:100AF000000E086E050E076EBDEC04F01200700EBD
:100B0000D36E070EB46E070EC16E92689368FC0E2A
:100B1000946EF00E956E000EF26E120000D0C7A417
:100B200003D0016A012A01D0016AC5501F0B0110D0
:100B30000009D8A4F4D7120094869488380EC66EA3
:100B4000000EC56E130EC86EC79CC78E9E9EA196E2
:100B50001200026E8EEC05F002C0C9FFC5BC02D0C7
:100B6000010E02D0000E00D01200206A1F6A1E6A19
:100B70001D6A000EF86E00015AEF03F08EEC05F0CE
:0C0B8000C58412008EEC05F0C580120048
:020000040020DA
:08000000FFFFFFFFFFFFFFFF00
:020000040030CA
:0E000000FF08181EFF8181FF0FC00FE00F40A8
:00000001FF
