:040000000CEF00F011
:10000800FACF3EF0FBCF3FF0E9CF40F0B7ED04F078
:04001800A3EF11F051
:100600000020416A7573746520496E696369616C85
:1006100020003E20202020202020202020202020DC
:10062000203C003E3E202020202020202020202092
:10063000203C3C003E3E3E20202020202020202048
:10064000203C3C3C003E3E3E3E20202020202020FE
:10065000203C3C3C3C003E3E3E3E3E2020202020B4
:10066000203C3C3C3C3C003E3E3E3E3E3E2020206A
:10067000203C3C3C3C3C3C00204D656469646F720E
:1006800020437573746F200056616C6F72206B5736
:100690002E683A2000476173746F3A20522420007C
:1006A000436F7272656E74653A20002C0041000041
:1006B000000E0001AB6F000E0001AC6F000E0001D8
:1006C000AD6F000E0001AE6F0E0E1DEC11F00F0E9F
:1006D00000018D6F810E00018C6F020E00018E6F84
:1006E000000E0001906F0A0E00018F6F000E0001D6
:1006F000916F44EC08F00001A76F0001A705D8A492
:100700000BD00001AB51020AD8A404D0000E0001A6
:10071000AB6F02D00001AB2B0F0E00018D6F810E6D
:1007200000018C6F010E00018E6F000E0001906FB2
:100730000A0E00018F6F000E0001916F44EC08F06B
:100740000001A76F0001A705D8B4A0D093D0CF0EA9
:100750001DEC11F00F0E00018D6F810E00018C6FEA
:10076000030E00018E6F000E0001906F0A0E000153
:100770008F6F000E0001916F44EC08F00001A76F2D
:100780000001A705D8A4A3D70001AC2B0001AC51F0
:100790000A0AD8A403D0000E0001AC6F0001AC51CE
:1007A00028EC0FF007EC11F0CF0E1DEC11F08FD7F5
:1007B000CE0E1DEC11F00F0E00018D6F810E0001A9
:1007C0008C6F030E00018E6F000E0001906F0A0EF9
:1007D00000018F6F000E0001916F44EC08F00001E2
:1007E000A76F0001A705D8A472D70001AE2B0001A6
:1007F000AE510A0AD8A403D0000E0001AE6F00016A
:10080000AE5128EC0FF007EC11F0CE0E1DEC11F0FC
:100810005ED7CC0E1DEC11F00F0E00018D6F810E16
:1008200000018C6F030E00018E6F000E0001906FAF
:100830000A0E00018F6F000E0001916F44EC08F06A
:100840000001A76F0001A705D8A441D70001AD2B77
:100850000001AD510A0AD8A403D0000E0001AD6F0B
:100860000001AD5128EC0FF007EC11F0CD0E1DEC9E
:1008700011F02DD70001AB51000AD8B468D7010A96
:10088000D8B496D7030AD8B4C4D721D7000E000134
:100890008F6F200E0001906F410E0001916F0001DB
:1008A000AE51D7EC10F088C08CF089C08DF08AC0B2
:1008B0008EF0A2EC0AF08CC09EF08DC09FF08EC02E
:1008C000A0F00001AD51D7EC10F088C09BF089C0BA
:1008D0009CF08AC09DF014EC06F09BC0A8F09CC070
:1008E000A9F09DC0AAF0A8C09BF0A9C09CF0AAC026
:1008F0009DF0000E00018F6FC80E0001906F420E38
:100900000001916F0001AC51D7EC10F088C08CF061
:1009100089C08DF08AC08EF0A2EC0AF08CC09EF0E7
:100920008DC09FF08EC0A0F014EC06F09BC0AFF01D
:100930009CC0B0F09DC0B1F0AFC08CF0B0C08DF0E5
:10094000B1C08EF0000E00018F6F7A0E0001906F23
:10095000440E0001916FA2EC0AF08CC0AFF08DC084
:10096000B0F08EC0B1F00C0E1DEC11F012000600BC
:10097000EACF41F0E1CF42F0E2CF43F0D9CF44F0EB
:10098000DACF45F0F3CF46F0F4CF47F0F6CF48F09A
:10099000F7CF49F0F8CF4AF0F5CF4BF0F2A49CD056
:1009A000000E506E000E4F6E000E526E000E516E15
:1009B000000E546E000E536E000E566E000E556EF5
:1009C000F294000ED66ECF68000E0C6EC80E0D6E3F
:1009D000420E0E6E5FC009F060C00AF061C00BF0FD
:1009E000BAEC0CF009C01CF00AC01DF00BC01EF0E0
:1009F00025EC0DF01CC03AF01DC03BF01EC03CF0D1
:100A00001FC03DF03AC04FF03BC050F05FC01CF03B
:100A100060C01DF061C01EF025EC0DF01CC03AF066
:100A20001DC03BF01EC03CF01FC03DF03AC02BF093
:100A30003BC02CF0000E2E6E640E2D6E2DEC0EF0D1
:100A40002BC051F02CC052F08A0E5CEC11F04FC05C
:100A50000EF050C00FF0020E106E54EC07F08D0E29
:100A60005CEC11F051C00EF052C00FF0020E106E8F
:100A700054EC07F064C006F065C007F0000E096E84
:100A8000640E086EF2EC0FF006C053F007C054F08D
:100A900064C001F065C002F0000E046E640E036EC7
:100AA00060EC10F001C055F002C056F0CA0E5CECCC
:100AB00011F053C00EF054C00FF0020E106E54EC43
:100AC00007F0CD0E5CEC11F055C00EF056C00FF0E3
:100AD000020E106E54EC07F09EA089D09E903C0E42
:100AE000CE6EF60ECF6EF29A33EC11F001505B260B
:100AF00002505C22000E5D22000E5E22632A622AF2
:100B00006350320AD8A42AD05BC001F05CC002F066
:100B10005DC003F05EC004F0320E056E000E066E7E
:100B2000000E076E000E086E75EC0EF001C03AF074
:100B300002C03BF003C03CF004C03DF03AC02EF0D0
:100B40003BC02FF0FCEC09F0000E5B6E000E5C6EFB
:100B5000000E5D6E000E5E6E000E636E6250640AE3
:100B6000D8A444D0000E4C6E000E4D6E000E4E6E9A
:100B700064C009F065C00AF06EEC11F009C00DF018
:100B80000AC00EF00BC00FF08F0E106EA20E116E89
:100B90003F0E126E48EC0CF00DC04CF00EC04DF044
:100BA0000FC04EF05FC01CF060C01DF061C01EF0B1
:100BB000AFC010F0B0C011F0B1C012F04CC00DF0D9
:100BC0004DC00EF04EC00FF048EC0CF00DC01FF001
:100BD0000EC020F00FC021F026EC09F01CC05FF021
:100BE0001DC060F01EC061F0000E626EF28A4BC044
:100BF000F5FF4AC0F8FF49C0F7FF48C0F6FF47C0FD
:100C0000F4FF46C0F3FF45C0DAFF44C0D9FF43C03C
:100C1000E2FF42C0E1FF41C0EAFF40C0E9FF3FC040
:100C2000FBFF3EC0FAFF110000019DC0A1F00001D2
:100C3000A26BA36B00019C350001A13701E3A281E7
:100C40000001A1510001A66F0001A0C0A1F00001A8
:100C5000A26BA36B00019F350001A13701E3A281C4
:100C60000001A1510001A56F0001A651D8B412D016
:100C70000001A5510001A65DD8B013D00001A65116
:100C800000080001A5250001A16F190E0001A15D5A
:100C9000D8A007D09EC09BF09FC09CF0A0C09DF044
:100CA00002D10001A551D8B412D00001A651000113
:100CB000A55DD8B013D00001A55100080001A625FC
:100CC0000001A16F190E0001A15DD8A007D09BC043
:100CD0009BF09CC09CF09DC09DF0E5D0060E0001ED
:100CE000A46F00019DAF02D00001A48F0001A0AF4E
:100CF00002D00001A48D00019C8FFF0E00019B1704
:100D0000FF0E00019C17000E00019D1700019F8F30
:100D1000FF0E00019E17FF0E00019F17000E00013D
:100D2000A0170001A5510001A65DD8B02AD000018E
:100D3000D89000019E3700019F370001A0370001C5
:100D4000A5070001A5510001A619D8B414D00001CF
:100D5000A407A4C0A1F0070E0001A117D8B40BD0BE
:100D6000E6D70001D89000019D3300019C330001BB
:100D70009B330001A62B0001A5510001A663F1D70A
:100D80002FD00001A6510001A55DD8B029D00001E7
:100D9000D89000019B3700019C3700019D3700016E
:100DA000A6070001A5510001A619D8B414D000016E
:100DB000A407A4C0A1F0070E0001A117D8B40BD05E
:100DC000E6D70001D8900001A03300019F33000155
:100DD0009E330001A52B0001A5510001A663F1D7A8
:100DE0000001A4AF12D0FF0E00019B1BFF0E0001FB
:100DF0009C1BFF0E00019D1B010E00019B27000E96
:100E000000019C23000E00019D230001A4AD12D01F
:100E1000FF0E00019E1BFF0E00019F1BFF0E000135
:100E2000A01B010E00019E27000E00019F23000E53
:100E30000001A023000E0001A46F00019B510001DE
:100E40009E2700019C5100019F2300019D5100013C
:100E5000A0230001A0AF15D0FF0E00019E1BFF0EC6
:100E600000019F1BFF0E0001A01B010E00019E2729
:100E7000000E00019F23000E0001A023010E0001BF
:100E8000A46F9EC080F09FC081F0A0C082F0A6C079
:100E900083F0A4C084F045EC0BF080C09BF081C0CF
:100EA0009CF082C09DF01200000E116E000E126EBA
:100EB000000E136E000E146E57C016F058C017F0D7
:100EC00059C018F05AC019F0000E1A6E000E156EB7
:100ED00010041A6E0F500E10D8B418D00EC001F0C6
:100EE0000FC002F0000E046E0A0E036E60EC10F0EC
:100EF0000150116E1A50010D160EF324D96E000E1A
:100F0000F420DA6E11505FEC0FF009D01A50010D89
:100F1000160EF324D96E000EF420DA6E300EDF6E5A
:100F20001A060A0E0E5C000E0F58D8A022D0000E32
:100F3000046E640E036E0EC001F00FC002F060EC90
:100F400010F001C006F002C007F0000E096E0A0E94
:100F5000086EF2EC0FF00650126E1A50010D160ECC
:100F6000F324D96E000EF420DA6E12505FEC0FF00D
:100F700009D01A50010D160EF324D96E000EF4207C
:100F8000DA6E300EDF6E1A06640E0E5C000E0F581D
:100F9000D8A022D0030E046EE80E036E0EC001F03E
:100FA0000FC002F060EC10F001C006F002C007F0C4
:100FB000000E096E640E086EF2EC0FF00650136E10
:100FC0001A50010D160EF324D96E000EF420DA6EBD
:100FD00013505FEC0FF009D01A50010D160EF324D8
:100FE000D96E000EF420DA6E300EDF6E1A06E80EAF
:100FF0000E5C030E0F58D8A022D0270E046E100EE0
:10100000036E0EC001F00FC002F060EC10F001C0E2
:1010100006F002C007F0030E096EE80E086EF2EC4F
:101020000FF00650146E1A50010D160EF324D96EEF
:10103000000EF420DA6E14505FEC0FF009D01A5055
:10104000010D160EF324D96E000EF420DA6E300E68
:10105000DF6E000E156E0CD01550010D160EF32428
:10106000D96E000EF420DA6EDF5080EC11F0152AF4
:101070001550010D160EF324D96E000EF420DA6E11
:10108000DF50D8B41200E8D70001916769D08CC056
:10109000D9FF8DC0DAFFDF500001926F8EC093F050
:1010A000010E0001946F0001932B03D00001D89032
:1010B00094370001932FFAD7000194510001921543
:1010C0000009D8A44DD0010E0001956F8FC086F0A5
:1010D00090C087F0C5EC0FF08CC0D9FF8DC0DAFF4F
:1010E000DF500001926F8EC093F0010E0001946FEB
:1010F0000001932B03D00001D89094370001932F67
:10110000FAD700019451000192150009D8A407D024
:1011100000019505D8A403D0010E0001966F8CC084
:10112000D9FF8DC0DAFFDF500001926F8EC093F0BF
:10113000010E0001946F0001932B03D00001D890A1
:1011400094370001932FFAD70001945100019215B2
:101150000009D8B4C1D700019605D8A4BDD76CD07A
:1011600000019105D8A470D08CC0D9FF8DC0DAFFE2
:10117000DF500001926F8EC093F0010E0001946F5A
:101180000001932B03D00001D89094370001932FD6
:10119000FAD700019451000192150009D8B454D037
:1011A000010E0001956F8FC086F090C087F0C5ECEE
:1011B0000FF08CC0D9FF8DC0DAFFDF500001926FB5
:1011C0008EC093F0010E0001946F0001932B03D0A9
:1011D0000001D89094370001932FFAD70001945161
:1011E000000192150009D8B407D000019505D8A4D4
:1011F00003D0010E0001966F8CC0D9FF8DC0DAFFBD
:10120000DF500001926F8EC093F0010E0001946FC9
:101210000001932B03D00001D89094370001932F45
:10122000FAD700019451000192150009D8A4C1D742
:1012300000019605D8A4BDD7000E0001966F000EE0
:101240000001956F010E01D0000E12001EC022F0A9
:10125000236A246A1D34223601E323802250276E3C
:1012600021C022F0236A246A2034223601E323803D
:101270002250266E2750D8B40CD02650275CD8B008
:101280000FD0275000082624226E190E225CD8A009
:1012900007D01FC01CF020C01DF021C01EF0ABD035
:1012A0002650D8B40CD02750265CD8B00FD026508A
:1012B00000082724226E190E225CD8A007D01CC07B
:1012C0001CF01DC01DF01EC01EF095D0060E256E30
:1012D0001EBE258E21BE258C1D8EFF0E1C16FF0EF8
:1012E0001D16000E1E16208EFF0E1F16FF0E201656
:1012F000000E21162650275CD8B01AD0D8901F3681
:1013000020362136260626502718D8B40DD02506BB
:1013100025C022F0070E2216D8B406D0EFD7D890F9
:101320001E321D321C32272A26502762F8D71DD0C4
:101330002750265CD8B019D0D8901C361D361E36E2
:10134000270626502718D8B40DD0250625C022F030
:10135000070E2216D8B406D0EFD7D890213220320B
:101360001F32262A26502762F8D725AE0CD0FF0E52
:101370001C1AFF0E1D1AFF0E1E1A010E1C26000E4F
:101380001D22000E1E2225AC0CD0FF0E1F1AFF0ED0
:10139000201AFF0E211A010E1F26000E2022000E19
:1013A0002122000E256E1C501F261D5020221E508B
:1013B000212221AE0ED0FF0E1F1AFF0E201AFF0EA3
:1013C000211A010E1F26000E2022000E2122010EDE
:1013D000256E1FC001F020C002F021C003F027C01D
:1013E00004F025C005F08FEC0DF001C01CF002C028
:1013F0001DF003C01EF01200000E376E000E386E96
:10140000000E396E2F50800A7F0FD40ED8B42E5C98
:10141000D8A093D02EC009F02FC00AF01BEC10F01A
:1014200009C010F00AC011F00BC012F02EC009F074
:101430002FC00AF01BEC10F009C00DF00AC00EF02E
:101440000BC00FF048EC0CF00DC034F00EC035F0BE
:101450000FC036F034C00DF035C00EF036C00FF0BE
:10146000C00E106E540E116E370E126E48EC0CF05A
:101470000DC037F00EC038F00FC039F037C01CF087
:1014800038C01DF039C01EF0CE0E1F6E180E206E33
:101490003F0E216E26EC09F01CC037F01DC038F05D
:1014A0001EC039F037C028F038C029F039C02AF002
:1014B000EE0E106EEB0E116E3B0E126E2EC009F08A
:1014C0002FC00AF01BEC10F009C00DF00AC00EF09E
:1014D0000BC00FF048EC0CF00DC02BF00EC02CF040
:1014E0000FC02DF0BCEC10F028C037F029C038F048
:1014F0002AC039F0000E106EC80E116E420E126E28
:1015000037C00DF038C00EF039C00FF048EC0CF0C9
:101510000DC01CF00EC01DF00FC01EF025EC0DF02C
:101520001CC030F01DC031F01EC032F01FC033F0BF
:1015300030C064F031C065F004D0000E656E000E5E
:10154000646E120000018EC092F00001936B946BE8
:1015500000018D350001923701E393810001925122
:101560000001996F0001996701D013D0000191C06B
:1015700092F00001936B946B00019035000192375B
:1015800001E393810001925100019A6F00019A6773
:101590000AD0000E00018C6F000E00018D6F000E4E
:1015A00000018E6F71D0000E0001966F000E0001D9
:1015B000976F000E0001986F00019A51890F00018A
:1015C000995F8EC09AF00001915100019A1B800E24
:1015D00000019A1700018D8FFF0E00018C17FF0E7E
:1015E00000018D17000E00018E170001908FFF0E75
:1015F00000018F17FF0E00019017000E00019117D8
:10160000180E0001956F0001D89000019637000177
:1016100097370001983700018F5100018C5D000160
:10162000905100018D590001915100018E59D8A0AF
:101630000ED000018F5100018C5F0001905100011C
:101640008D5B0001915100018E5B000196810001CC
:10165000D89000018C3700018D3700018E370001D2
:10166000952FD1D796C080F097C081F098C082F0B6
:1016700099C083F09AC084F045EC0BF080C08CF0E8
:1016800081C08DF082C08EF0120000018351D8B469
:1016900008D0000180510001811100018211D8A4FD
:1016A00014D0000E0001806F000E0001816F000E4B
:1016B0000001826F6ED00001832B0001D8900001E1
:1016C00082330001813300018033000E0001801558
:1016D0000001856F000E000181150001866FFE0E6E
:1016E000000182150001876F000185518611871165
:1016F000D8B414D0E0D70001832B010E000180275D
:10170000000E00018123000E000182230001D89009
:10171000000182330001813300018033000E00019B
:1017200080150001856F000E000181150001866F94
:10173000FF0E000182150001876F0001855186119F
:101740008711D8B40BD0D7D7000183070001D890F8
:10175000000180370001813700018237000181AF2D
:10176000F3D7000183B102D00001819F0001D8901E
:101770008333000183510001821300018451D8B4E6
:1017800002D00001828F80C080F081C081F082C0D1
:1017900082F01200010E1DEC11F0060E00018E6F9A
:1017A000780E00018D6FE3EC0DF0C00E1DEC11F012
:1017B000060E00018E6F120E00018D6FE3EC0DF02E
:1017C000010E0001876F900E0001866FC5EC0FF0CF
:1017D000C00E1DEC11F0060E00018E6F230E0001ED
:1017E0008D6FE3EC0DF0010E0001876F900E00018C
:1017F000866FC5EC0FF0C00E1DEC11F0060E000157
:101800008E6F340E00018D6FE3EC0DF0010E0001C0
:10181000876F900E0001866FC5EC0FF0C00E1DECB7
:1018200011F0060E00018E6F450E00018D6FE3EC86
:101830000DF0010E0001876F900E0001866FC5EC60
:101840000FF0C00E1DEC11F0060E00018E6F560E4B
:1018500000018D6FE3EC0DF0010E0001876F900E1B
:101860000001866FC5EC0FF0C00E1DEC11F0060EE6
:1018700000018E6F670E00018D6FE3EC0DF0010E1D
:101880000001876F900E0001866FC5EC0FF012000B
:101890000FC013F0146A156A0E34133601E3148076
:1018A0001350166E166601D00CD012C013F0146AD5
:1018B000156A1134133601E3148013501B6E1B6636
:1018C00007D0000E0D6E000E0E6E000E0F6E51D082
:1018D0001B507B0F16260FC01BF012501B1A800ED8
:1018E0001B160E8E118EFF0E1016FF0E1116000E17
:1018F0001216000E176E000E186E000E196E070EEF
:101900001A6E0DA006D01050172611501822125032
:101910001922D8900F320E320D32D890103611366F
:1019200012361A2EEED7090E1A6E0DA006D01050E0
:1019300017261150182212501922D8900F320E3249
:101940000D32D8901932183217321A2EEED717C02E
:1019500001F018C002F019C003F016C004F01BC05B
:1019600005F08FEC0DF001C00DF002C00EF003C0C9
:101970000FF012000BC00FF0106A116A0A340F3614
:1019800001E310800F50166E166601D00CD00EC009
:101990000FF0106A116A0D340F3601E310800F50FA
:1019A000176E176607D0000E096E000E0A6E000E45
:1019B0000B6E4AD0000E136E000E146E000E156EE4
:1019C0001750890F165E0BC017F00E50171A800EB5
:1019D00017160A8EFF0E0916FF0E0A16000E0B16BA
:1019E0000D8EFF0E0C16FF0E0D16000E0E16180EA5
:1019F000126ED8901336143615360C50095C0D5003
:101A00000A580E500B58D8A007D00C50095E0D5044
:101A10000A5A0E500B5A1380D89009360A360B36E4
:101A2000122EE7D713C001F014C002F015C003F066
:101A300016C004F017C005F08FEC0DF001C009F0DE
:101A400002C00AF003C00BF012001EC020F0216A91
:101A5000226A1D34203601E3218020502A6E2A6636
:101A600001D038D0170E206E1CC021F01DC022F00E
:101A70001EC023F02028246E04D0D89023322232B6
:101A80002132242EFAD72150256E1D8EFF0E1C16F2
:101A9000FF0E1D16000E1E161C50266E1D50276EC2
:101AA0001E50286E296A8E0E2A5E2AAE10D02A5049
:101AB000800A206EF10E800A205CD8A00BD0D8904E
:101AC00029322832273226322A3EF9D714D0170E6F
:101AD0002A640FD0000E1C6E000E1D6E000E1E6ECE
:101AE000000E1F6E1BD0D890263627362836293692
:101AF0002A062A66F8D72550D8B408D0291E281EF1
:101B0000271E266C000E27222822292226C01CF020
:101B100027C01DF028C01EF029C01FF0120004507D
:101B2000D8B405D0015002100310D8A40CD0000E78
:101B3000016E000E026E000E036E44D0042AD8908F
:101B4000033202320132000E0114066E000E02143E
:101B5000076EFE0E0314086E065007100810D8B466
:101B60000CD0ECD7042A010E0126000E0222000E32
:101B70000322D890033202320132000E0114066EA5
:101B8000000E0214076EFF0E0314086E06500710B5
:101B90000810D8B406D0E6D70406D890013602362D
:101BA000033602AEF9D704A0029ED8900432045046
:101BB00003120550D8A4038E01C001F002C002F048
:101BC00003C003F01200000E0001916F000E00012F
:101BD000926F000E0001936F04D00001922B000160
:101BE000912B00019251010D00018DC08FF0000179
:101BF0008EC090F0F35000018F27F4500001902325
:101C00008FC0F6FF90C0F7FF0800F5500009D8A478
:101C1000E4D7000E0001936F19D000019351010D1C
:101C200000018DC08FF000018EC090F0F3500001D4
:101C30008F27F450000190238FC0F6FF90C0F7FF6C
:101C40000800F55007EC11F00001932B00019151B1
:101C50000001935DD8B01200E0D7000E306E2C501A
:101C6000800AF36E800EF35C000ED8B42B5CD8B003
:101C700006D02B6C2C1ED8B02C2A010E306E2E50A4
:101C8000800AF36E800EF35C000ED8B42D5CD8B0E1
:101C900004D02D6C2E1ED8B02E2A2E502D10D8B464
:101CA00018D0010E2F6E04D0D8902D362E362F2A44
:101CB0002EAEFAD72D502B5C2E502C58D8A004D025
:101CC0002D502B5E2E502C5AD8902E322D322F2E86
:101CD000F1D73050D8B404D02B6C2C1ED8B02C2A9D
:101CE0002BC02BF02CC02CF01200000E096E000E41
:101CF0000A6E000E0B6E000E0C6E085005100610DA
:101D00000710D8B42AD0010E0D6E06D0D890053633
:101D10000636073608360D2A08AEF8D7D8900936A9
:101D20000A360B360C360550015C06500258075037
:101D3000035808500458D8A009D00550015E065039
:101D4000025A0750035A0850045A0980D8900832A2
:101D50000732063205320D2EE1D709C001F00AC064
:101D600002F00BC003F00CC004F012008290000ED1
:101D70000001876F1E0E0001866FC5EC0FF0030E89
:101D8000836E82828292000E0001876F1E0E000118
:101D9000866FC5EC0FF0030E836E82828292000E76
:101DA0000001876F1E0E0001866FC5EC0FF0030E59
:101DB000836E82828292000E0001876F1E0E0001E8
:101DC000866FC5EC0FF0020E836E82828292000E47
:101DD0000001876F010E0001866FC5EC0FF0120045
:101DE000010E1DEC11F0060E00018E6F950E000124
:101DF0008D6FE3EC0DF08C0E1DEC11F0060E000162
:101E00008E6FAB0E00018D6FE3EC0DF0C00E1DEC7C
:101E100011F0060E00018E6FA00E00018D6FE3EC35
:101E20000DF0CC0E1DEC11F0060E00018E6FAB0E06
:101E300000018D6FE3EC0DF0CF0E1DEC11F0060EDE
:101E400000018E6FAD0E00018D6FE3EC0DF01200FE
:101E50000001806F12D0310E31D0320E2FD0330EF0
:101E60002DD0340E2BD0350E29D0360E27D0370E7C
:101E700025D0380E23D0390E21D000018051000A20
:101E8000D8B41BD0010AD8B4E6D7030AD8B4E5D732
:101E9000010AD8B4E4D7070AD8B4E3D7010AD8B402
:101EA000E2D7030AD8B4E1D7010AD8B4E0D70F0AC1
:101EB000D8B4DFD7010AD8B4DED7300E1200016ED5
:101EC00012D0310E30D0320E2ED0330E2CD0340E34
:101ED0002AD0350E28D0360E26D0370E24D0380E14
:101EE00022D0390E20D00150000AD8B41BD0010AEC
:101EF000D8B4E7D7030AD8B4E6D7010AD8B4E5D7EF
:101F0000070AD8B4E4D7010AD8B4E3D7030AD8B48F
:101F1000E2D7010AD8B4E1D70F0AD8B4E0D7010A52
:101F2000D8B4DFD7300E1200010E1DEC11F0060EF2
:101F300000018E6F010E00018D6FE3EC0DF0C00EFD
:101F40001DEC11F0060E00018E6F880E00018D6FE2
:101F5000E3EC0DF0CD0E1DEC11F02C0E07EC11F0A2
:101F6000CF0E1DEC11F0300E07EC11F0CE0E1DEC73
:101F700011F0300E07EC11F0CC0E1DEC11F0300E0C
:101F800007EC11F058EC03F01200000E00018B6F0B
:101F9000000E00018A6F86C080F087C081F0000EBD
:101FA0000001836F470E0001826FA1EC10F0000169
:101FB00080C088F0000181C089F0000E00018B6FA5
:101FC000000E00018A6F03D000018A4B8B2B0001A9
:101FD000885100018A5D0001895100018B59D8B0F8
:101FE0001200F2D7000E0B6E000E0A6E0950081098
:101FF000D8B41CD0010E0C6E04D0D8900836093627
:102000000C2A09AEFAD7D8900A360B360850065C6F
:1020100009500758D8A005D00850065E0950075A45
:102020000A80D890093208320C2EEDD70AC006F08B
:102030000BC007F01200000E0C6E0A50800AF36EFF
:10204000800EF35C000ED8B4095CD8B006D0096CE1
:102050000A1ED8B00A2A010E0C6E09C001F00AC08F
:1020600002F0036A8E0E046E0CC005F08FEC0DF0CA
:1020700001C009F002C00AF003C00BF01200020E0A
:10208000836E82828292080E836E82828292000E1A
:102090000001876F020E0001866FC5EC0FF0000E85
:1020A000836E828282920C0E836E82828292000EF6
:1020B0000001876F020E0001866FC5EC0FF0120061
:1020C00004500310D8B418D0010E056E04D0D89077
:1020D00003360436052A04AEFAD70350015C0450D7
:1020E0000258D8A004D00350015E0450025AD89080
:1020F00004320332052EF1D701C001F002C002F014
:102100001200000E0C6E000E0B6E07C001F008C02E
:1021100002F0000E046E470E036E49EC11F001C090
:1021200009F002C00AF0000E0C6E000E0B6E02D019
:102130000B4A0C2A09500B5C0A500C58D8B01200FC
:10214000F7D70001805100018203F3CF84F0F4CF70
:1021500085F00001805100018303F35000018527C1
:102160000001815100018203F3500001852784C0E2
:1021700080F085C081F01200000E2B1A000E2C1A80
:10218000800E2D1A28C01CF029C01DF02AC01EF098
:102190002BC01FF02CC020F02DC021F026EC09F040
:1021A0001CC028F01DC029F01EC02AF0120000013A
:1021B0008B6F00018B510001806F0001816B00016A
:1021C000826B8E0E0001836F000E0001846F45EC60
:1021D0000BF080C088F081C089F082C08AF01200C4
:1021E000700ED36E92689368FC0E946EF00E956E2E
:1021F000070EB46E000EBA6EC00EF26E800EF16E57
:10220000020ED56E300ECD6ED58ECD80120000013F
:102210008C6F828000018C390F0B836E82828292D8
:102220008CC083FF82828292000E0001876F020EB3
:102230000001866FC5EC0FF0120000018C6F8290D8
:1022400000018C390F0B836E828282928CC083FFD7
:1022500082828292000E0001876F050E0001866F58
:10226000C5EC0FF01200000E046E000E036EC28269
:10227000C2B2FED7C4CF03F0046A0350046E036AEF
:10228000C3500326000E042203C001F004C002F074
:10229000120001500302F3CF05F0F4CF06F0015015
:1022A0000402F350062602500302F350062605C02E
:1022B00001F006C002F012000D6E82900D380F0B77
:1022C000836E828282920DC083FF82828292000E90
:1022D000086E050E076E81EC10F0120009C001F0C7
:1022E0000AC002F0036A8E0E046E000E056E8FECBB
:1022F0000DF001C009F002C00AF003C00BF012009B
:102300000D6E82800D380F0B836E828282920DC01B
:1023100083FF82828292000E086E020E076E81ECAD
:1023200010F01200F0EC10F0B6EC0EF03FEC10F0F4
:10233000B2EC11F0CAEC0BF094EC0FF0F0EC0EF0F4
:10234000F28A9D80FFD70001B16BB06BAF6B00EEDE
:1023500057F00F0EEE6AE806FDE1000EF86E000180
:1023600092EF11F0000EC26E0D0EC16EAE0EC06E79
:04237000C280120015
:020000040020DA
:08000000FFFFFFFFFFFFFFFF00
:020000040030CA
:0E000000FF08191EFF0381FF0FC00FE00F4025
:00000001FF
