:040000008A11FD2F35
:10067E00F000831203138C1C402B700895000800A9
:10068E008030831203139F002030831603139F00C4
:10069E00831203131F1408002030831203139600D5
:1006AE0080309700910133309300831603130712A5
:1006BE0008006530831603138F008B138030810082
:1006CE000730831203139900013083160313910030
:1006DE00FF308700950108007808F0007908F100D6
:1006EE00F2018E30FB007B08F300F4018A11C12465
:1006FE007008F8007108F9007208FA000800F40199
:10070E00F501701C902B7208F4070318F50A730894
:10071E00F50701300310F20DF30DFF3E031D912B73
:10072E0001300310F10CF00CFF3E031D982B7108E5
:10073E007004031D882B7508F101F1077408F00190
:10074E00F0070800FA01FB017708F101F1077608BE
:10075E00F001F0074730F2000030F3008A118623D3
:10076E008A117108F901F9077008F801F807FA0102
:10077E00FB0179087B02031DC62B78087A02031849
:10078E0008000130FA070318FB0A0030FB07C02BE4
:10079E00F401F501831203139F149F18D42B1E0826
:1007AE00F200F3017208F4007308F500083003102C
:1007BE00F40DF50DFF3E031DDE2B831603131E08ED
:1007CE00F200F3017208F4070318F50A7308F5072F
:1007DE007508F101F1077408F001F0070800F50142
:1007EE00F6017108700403192D2CF701F70AF11B9D
:1007FE000C2C01300310F00DF10DFF3E031D012CEA
:10080E000130F4007408F707FE2B01300310F50DCC
:10081E00F60DFF3E031D0D2C71087302031D192CDE
:10082E0070087202031C222C7008F2027108031C5D
:10083E00F303F302751401300310F10CF00CFF3EBC
:10084E00031D232C0130F702031D0C2C7608F10139
:10085E00F1077508F001F0070800FD01831203137C
:10086E004C08F901F9074B08F801F8078A117323B0
:10087E008A11780883120313A3007908A4007A085A
:10088E00A500D730A0002330A100C330A2008A11EA
:10089E00F5268A11831203132008B0002108B10037
:1008AE002208B200CD30AD00FC30AE004030AF00BB
:1008BE008A113E268A11831203132D08BD002E08BD
:1008CE00BE002F08BF008A11B025831203133D0806
:1008DE00FC007C08FD007D080800F601F31F7E2C4D
:1008EE00F209F309F20A0319F30AF601F60AF11FE7
:1008FE00852CF009F109F00A0319F10A7108700448
:10090E000319B22CF501F50AF11B992C01300310D5
:10091E00F00DF10DFF3E031D8E2C0130F400740816
:10092E00F5078B2C71087302031D9F2C7008720241
:10093E00031CA72C7008F2027108031CF303F302C8
:10094E0001300310F10CF00CFF3E031DA82C0130FA
:10095E00F502031D992C76080319BA2CF209F30936
:10096E00F20A0319F30A7308F101F1077208F00194
:10097E00F007080073080319C92C7208710470047B
:10098E00031DDC2C0030F0000030F1000030F200CE
:10099E0008000130F5007508F30701300310F20C62
:1009AE00F10CF00CFF3E031DD52CFE307205031921
:1009BE00F72CD02C0130F5007508F3070130F00745
:1009CE00003003180130F107003003180130F20730
:1009DE0001300310F20CF10CF00CFF3E031DF02C55
:1009EE00FF3072050319062DE12C0130F3020130A0
:1009FE000310F00DF10DF20DFF3E031DFF2CF11F44
:100A0E00FC2C7318102DFF30F0057F30F105FF30F0
:100A1E00F2050310F30C7308F500F601F701103020
:100A2E000310F50DF60DF70DFF3E031D172D75087E
:100A3E00F0047608F1047708F2047408031908002C
:100A4E00F217080083120313CE01CF01D101D20198
:100A5E00D0018A1160238A118A1147238A118A11C3
:100A6E0053238A1183120313D301D4015408803AFD
:100A7E00FF0083307F02031D462DE9305302031819
:100A8E00392D8A11CF238A11700883120313CE07D2
:100A9E000318CF0A7108CF070130CD004D08D007DB
:100AAE005008323A031D7F2D3230F0000030F10035
:100ABE004F08F301F3074E08F201F2078A11F623ED
:100ACE008A11710883120313D201D2077008D10163
:100ADE00D107D001CE01CF015208CC01CC0751086D
:100AEE00CB01CB078A1134248A118A113F238A1134
:100AFE000530F0000030F100831203135408F301A7
:100B0E00F3075308F201F2078A1174248A1171084F
:100B1E007004031DA02D831203135208CC01CC07C1
:100B2E005108CB01CB078A1134248A118A113F2335
:100B3E008A110230F6000030F7008A11A9238A11BB
:100B4E00013083120313D3070318D40A0030D407DD
:100B5E003D2D831203133D08C1003E08C2003F081D
:100B6E00C3000310420D430DC4004408CA00CA0856
:100B7E00031DCA2D0030C0000030BF000030BE0083
:100B8E000030BD0008003D08C1003E08C2003F080D
:100B9E00C30017300310C30CC20CC10CFF3E031D63
:100BAE00D12D4108C4004408C500BE17FF30BD0555
:100BBE00FF30BE050030BF053D08C6003E08C70029
:100BCE003F08C800C9018E30CA02CA1F0C2E4A083F
:100BDE00803A8F3E0318FC2D0030C0000030BF005D
:100BEE000030BE000030BD00080001300310C90CFB
:100BFE00C80CC70CC60CFF3E031DFD2D0130C100F5
:100C0E004108CA070319272EFC2D18304A02031C6F
:100C1E00242E0030C0000030BF000030BE00003077
:100C2E00BD0008000130C1000310C60DC70DC80D70
:100C3E00C90DC10B1B2E0130CA02CA08031D192E85
:100C4E0045080319352EC609C709C809C909C60AB8
:100C5E000319C70A0319C80A0319C90A4908C000AB
:100C6E004808BF004708BE004608BD0008008312B2
:100C7E0003133008B3003108B4003208B500031076
:100C8E00340D350DB6003608BB00BB08031D562EBD
:100C9E000030AD000030AE000030AF0008002D086F
:100CAE00B3002E08B4002F08B5000310340D350D17
:100CBE00B6003608BC00BC08031D6C2E0030AD001B
:100CCE000030AE000030AF0008000030B800003039
:100CDE00B9000030BA0089303C07B3003308BB02BC
:100CEE003008B3003108B4003208B50010300310DC
:100CFE00B50CB40CB30CFF3E031D7E2E3308B600AC
:100D0E003608BC002D08B3002E08B4002F08B5001D
:100D1E0010300310B50CB40CB30CFF3E031D902E17
:100D2E003308B6003608BC068030B3003308BC0565
:100D3E00B117FF30B005FF30B1050030B205AE1768
:100D4E00FF30AD05FF30AE050030AF051830B300F3
:100D5E003308B70001300310B80DB90DBA0DFF3EC0
:100D6E00031DB22E2F083202031DC32E2E08310290
:100D7E00031DC32E2D083002031CD02E2D08B002E9
:100D8E002E08031C2E0FB1022F08031C2F0AB202CD
:100D9E00381401300310B00DB10DB20DFF3E031D1E
:100DAE00D12E0130B702031DB12E3808F0003908DC
:100DBE00F1003A08F2003B08B3003308F3003C0898
:100DCE00B4003408F4008A11C1247008831203138E
:100DDE00AD007108AE007208AF0008008312031355
:100DEE002008A6002108A7002208A8000310270D3E
:100DFE00280DA9002908AC002308A6002408A70086
:100E0E002508A8000310270D280DA9002908AB00FE
:100E1E002C0803191E2F2B082C020318252F2C0328
:100E2E00FF3A2B07A60019302602031C252F230894
:100E3E00A0002408A1002508A20008002B08031911
:100E4E0008002C082B020318342F2B03FF3A2C0713
:100E5E00A60019302602031808000630A600260840
:100E6E00AA00A21BAA17A51B2A17A117FF30A005BF
:100E7E00FF30A1050030A205A417FF30A305FF30F7
:100E8E00A4050030A5052B082C020318742F013081
:100E9E000310A30DA40DA50DFF3E031D4F2F013012
:100EAE00AB022B082C0603196F2F0130AA022A0859
:100EBE00073903196F2F4E2F01300310A20CA10C0E
:100ECE00A00CFF3E031D642F0130A6002608AC07C0
:100EDE002C082B0603199D2F632F2C082B020318A9
:100EEE009D2F01300310A00DA10DA20DFF3E031D7D
:100EFE00792F0130AC022B082C060319992F0130E3
:100F0E00AA022A0807390319992F782F01300310E6
:100F1E00A50CA40CA30CFF3E031D8E2F0130A600C2
:100F2E002608AB072C082B06031D8D2FAA1FAF2FEB
:100F3E00FF30A006FF30A106FF30A2060130A00749
:100F4E00003003180130A107003003180130A2074A
:100F5E002A1FC12FFF30A306FF30A406FF30A506BF
:100F6E000130A307003003180130A4070030031826
:100F7E000130A507AA012008A307210803110318B1
:100F8E00210A031DA407220803110318220A031DB8
:100F9E00A507A51FE42FFF30A306FF30A406FF30E0
:100FAE00A5060130A307003003180130A407003056
:100FBE0003180130A507AA01AA0A2308F000240885
:100FCE00F1002508F2002C08A6002608F3002A08D6
:100FDE00A7002708F4008A11C12470088312031396
:100FEE00A0007108A1007208A200080083018A11F6
:020FFE00292D9B
:02400E00D4F0EC
:00000001FF
