:040000000CEF00F011
:10000800FACF02F0FBCF03F0E9CF04F011ED01F0D5
:100018002EEF02F02150D8A456D01CC0D9FF1DC025
:10002800DAFFDF50226E1EC023F0010E246E232A51
:1000380002D0D8902436232EFCD72450221400094D
:10004800D8A441D0010E256E1FC016F020C017F0AD
:10005800E6EC01F000D01CC0D9FF1DC0DAFFDF506C
:10006800226E1EC023F0010E246E232A02D0D890DF
:100078002436232EFCD7245022140009D8A406D0F5
:100088002504D8A403D0010E266E00D01CC0D9FFC9
:100098001DC0DAFFDF50226E1EC023F0010E246E51
:1000A800232A02D0D8902436232EFCD72450221499
:1000B8000009D8B4D0D72604D8A4CDD758D0010E7B
:1000C80060D0C9D700D02104D8A459D01CC0D9FF0A
:1000D8001DC0DAFFDF50226E1EC023F0010E246E11
:1000E800232A02D0D8902436232EFCD72450221459
:1000F8000009D8B444D0010E256E1FC016F020C0E8
:1001080017F0E6EC01F000D01CC0D9FF1DC0DAFFE3
:10011800DF50226E1EC023F0010E246E232A02D067
:10012800D8902436232EFCD7245022140009D8B4A2
:1001380006D02504D8A403D0010E266E00D01CC01A
:10014800D9FF1DC0DAFFDF50226E1EC023F0010E5A
:10015800246E232A02D0D8902436232EFCD724508C
:1001680022140009D8A4D0D72604D8A4CDD7000ECD
:10017800266E000E256EA3D704D0C6D700D0000E79
:1001880000D012001BEC02F07D0ED66ED58EF28ADE
:1001980000D0000E286E000E276E600E275CEA0E57
:1001A8002858D8B0F6D701D0F4D7810E1C6E0F0EA0
:1001B8001D6E010E1E6E000E206E050E1F6E000EC7
:1001C800216E0EEC00F0E806D8A408D02A04D8A4C2
:1001D80002D0000E01D0010E2A6E00D027C010F008
:1001E80028C011F0170E136E700E126EC0EC01F0DD
:1001F80010501110D8A40BD02A50D8A408D02B2AFC
:100208000A0E2B18D8A403D0000E2B6E00D0274A54
:10021800282AC3D7BED70CEF00F00600EACF05F0B6
:10022800E1CF06F0E2CF07F0D9CF08F0DACF09F036
:10023800F3CF0AF0F4CF0BF0F6CF0CF0F7CF0DF0B8
:10024800F8CF0EF0F5CF0FF0F2A406D0F2947D0EA1
:10025800D66E87EC01F000D00FC0F5FF0EC0F8FF96
:100268000DC0F7FF0CC0F6FF0BC0F4FF0AC0F3FF88
:1002780009C0DAFF08C0D9FF07C0E2FF06C0E1FFE6
:1002880005C0EAFF04C0E9FF03C0FBFF02C0FAFF94
:100298001100016E15D03F0E35D0060E33D05B0E1F
:1002A80031D04F0E2FD0660E2DD06D0E2BD07D0E77
:1002B80029D0070E27D07F0E25D06F0E23D020D04F
:1002C8000150000AD8B4E7D7010AD8B4E6D7030A20
:1002D800D8B4E5D7010AD8B4E4D7070AD8B4E3D725
:1002E800010AD8B4E2D7030AD8B4E1D7010AD8B4CE
:1002F800E0D70F0AD8B4DFD7010AD8B4DED700D0C8
:10030800000E00D0120029D08094000E836E2B506E
:100318004DEC01F0836E808A010E1DD0809A000E8C
:10032800836E2B504DEC01F0836E8088020E13D043
:100338008098000E836E2B504DEC01F0836E808602
:10034800030E09D08096000E836E2B504DEC01F001
:10035800836E8084000E296E0ED02950000AD8B40E
:10036800D3D7010AD8B4DAD7030AD8B4E1D7010A37
:10037800D8B4E8D700D0120012501310D8B41DD04A
:10038800010E146E05D0D89012361336142A00D0F8
:1003980013BE02D0F8D700D01250105C1350115879
:1003A800D8A005D01250105E1350115A00D0D89022
:1003B80013321232142EF0D700D010C010F011C032
:1003C80011F01200000E1B6E000E1A6E16C010F00F
:1003D80017C011F0000E136E470E126E07EC02F0F4
:1003E80010C018F011C019F0000E1B6E000E1A6E26
:1003F80003D01A4A1B2A00D018501A5C19501B58EF
:10040800D8A0F7D7120010501202F3CF14F0F4CF8F
:1004180015F010501302F350152611501202F35024
:10042800152614C010F015C011F000D01200720E7D
:10043800D36E070EC16E070EB46E470ED56EC00E92
:10044800F26E000EF16EC30E926E93689468000E01
:10045800956E12002A6A296A7C0EF66E040EF76EF3
:10046800000EF86E0900F5CF2BF0000EF86E0001B3
:06047800C6EF00F00900D0
:020000040020DA
:08000000FFFFFFFFFFFFFFFF00
:020000040030CA
:0E000000FF081E1EFF8180FF0FC00FE00F40A3
:00000001FF
