:040000008A11F32F3F
:10000A000134803083120313BF064008B000410850
:10001A00B1004208B2003D08B3003E08B4003F08F0
:10002A00B5008A11B025831203133008BD003108C8
:10003A00BE003208BF000800F401F5018312031361
:10004A009F149F1826281E08F200F3017208F40074
:10005A007308F50008300310F40DF50DFF3E031D7B
:10006A003028831603131E08F200F3017208F407FE
:10007A000318F50A7308F5077508F101F107740802
:10008A00F001F0070800F501F60171087004031980
:10009A007F28F701F70AF11B5E2801300310F00DE3
:1000AA00F10DFF3E031D53280130F4007408F707D1
:1000BA00502801300310F50DF60DFF3E031D5F2891
:1000CA0071087302031D6B2870087202031C7428DE
:1000DA007008F2027108031CF303F302751401306D
:1000EA000310F10CF00CFF3E031D75280130F702D6
:1000FA00031D5E287608F101F1077508F001F00783
:10010A00080083120313A601A31F9228A209A309B8
:10011A00A20A0319A30AA601A60AA11F9928A009DF
:10012A00A109A00A0319A10A210820040319C62853
:10013A00A501A50AA11BAD2801300310A00DA10D30
:10014A00FF3E031DA2280130A4002408A5079F280A
:10015A0021082302031DB32820082202031CBB28FE
:10016A002008A2022108031CA303A30201300310E2
:10017A00A10CA00CFF3E031DBC280130A502031DE3
:10018A00AD2826080319CE28A209A309A20A031931
:10019A00A30A2308A101A1072208A001A0070800B9
:1001AA00F00019293F308312031387000512080053
:1001BA000630831203138700051208001B308312CE
:1001CA0003138700051608000F30831203138700F4
:1001DA000516080026308312031387000516080047
:1001EA002D30831203138700051608003D30831251
:1001FA0003138700051608000730831203138700CC
:10020A00051208003F308312031387000516080001
:10021A002F30831203138700051608003930831222
:10022A000313870005160800700884000A300402C8
:10023A000318132908308A000310040D003E8200B7
:10024A00080083120313AD01A81F3229A709A809C0
:10025A00A70A0319A80AAD01AD0AAA1F3D29A909CF
:10026A00AA09A90A0319AA0A0130AB002B08AD068C
:10027A00AE01AF012808270403197429AC01AC0A9E
:10028A00A81B532901300310A70DA80DFF3E031D1B
:10029A0048290130AB002B08AC074529013003106F
:1002AA00AE0DAF0DFF3E031D542928082A02031D77
:1002BA00602927082902031C69292708A902280896
:1002CA00031CAA03AA022E1401300310A80CA70CBF
:1002DA00FF3E031D6A290130AC02031D53292D0874
:1002EA0003197C29AE09AF09AE0A0319AF0A2F0810
:1002FA00A801A8072E08A701A7070800F21FAA2924
:10030A000030F6000030F7008030F8007009F9007C
:10031A007109FA007209FB00F90A0319FA0A0319AA
:10032A00FB0A7908F6077A0803187A0F9D299E298D
:10033A00F7077B0803187B0FA329A429F807760877
:10034A00F0007708F1007808F200F51FD129003093
:10035A00F6000030F7008030F8007309F9007409DC
:10036A00FA007509FB00F90A0319FA0A0319FB0ACC
:10037A007908F6077A0803187A0FC429C529F707F6
:10038A007B0803187B0FCA29CB29F8077608F300E4
:10039A007708F4007808F5008030F2068030F50618
:1003AA0075087202031D080074087102031D080013
:1003BA0073087002080073080319E82972087104A7
:1003CA007004031DFB290030F0000030F1000030FA
:1003DA00F20008000130F5007508F3070130031038
:1003EA00F20CF10CF00CFF3E031DF429FE307205ED
:1003FA000319162AEF290130F5007508F3070130B1
:10040A00F007003003180130F107003003180130FB
:10041A00F20701300310F20CF10CF00CFF3E031D41
:10042A000F2AFF3072050319252A002A0130F30228
:10043A0001300310F00DF10DF20DFF3E031D1E2ACF
:10044A00F11F1B2A73182F2AFF30F0057F30F105A0
:10045A00FF30F2050310F30C7308F500F601F701FB
:10046A0010300310F50DF60DF70DFF3E031D362A69
:10047A007508F0047608F1047708F2047408031981
:10048A000800F21708007008F4007108F5007208F5
:10049A00F6000310750D760DF7007708FD00FD08CC
:1004AA00031D602A0030F3000030F2000030F10032
:1004BA000030F00008007008F4007108F5007208B6
:1004CA00F60017300310F60CF50CF40CFF3E031D72
:1004DA00672A7408F7007708F800F117FF30F0056B
:1004EA00FF30F1050030F2057008F9007108FA00D2
:1004FA007208FB00FC018E30FD02FD1FA22A7D0856
:10050A00803A8F3E0318922A0030F3000030F2003E
:10051A000030F1000030F000080001300310FC0C3C
:10052A00FB0CFA0CF90CFF3E031D932A0130F40070
:10053A007408FD070319BD2A922A18307D02031C8C
:10054A00BA2A0030F3000030F2000030F100003027
:10055A00F00008000130F4000310F90DFA0DFB0D4C
:10056A00FC0DF40BB12A0130FD02FD08031DAF2A70
:10057A0078080319CB2AF909FA09FB09FC09F90ACF
:10058A000319FA0A0319FB0A0319FC0A7C08F30087
:10059A007B08F2007A08F1007908F00008008A1551
:1005AA007D278A118A155E278A1183120313D401C3
:1005BA00D5015508803AFF0083307F02031DE72AE0
:1005CA00E93054020318DA2A8A1121208A117008A4
:1005DA0083120313D6070318D70A7108D707013005
:1005EA00D3005308DB075B08323A031D142B323061
:1005FA00F0000030F1005708F301F3075608F20142
:10060A00F2078A1148208A11710883120313D9014B
:10061A00D9077008D801D807DB01D601D7012C30D9
:10062A00A0000130A1005508A301A3075408A201A4
:10063A00A2078A1186208A11831203132108200433
:10064A00031D3B2B5908C401C4075808C301C3073B
:10065A008A11B8268A11831203134308CF0044086B
:10066A00D0004508D1008A1118248A110330831258
:10067A000313A0000030A1005508A301A3075408E2
:10068A00A201A2078A1186208A1183120313210864
:10069A002004031D532B8A15B4278A110230F60051
:1006AA000030F7008A15DA278A1101308312031302
:1006BA00D4070318D50A0030D507DE2A7B0883122F
:1006CA000313A0007C08A1007D08A2000310210DDD
:1006DA00220DA3002308A800A808031D7B2B0030C5
:1006EA00F8000030F9000030FA0008007808A0008D
:1006FA007908A1007A08A2000310210D220DA30097
:10070A002308A900A908031D912B0030F800003026
:10071A00F9000030FA0008000030A5000030A600F9
:10072A000030A70089302907A0002008A8027B080A
:10073A00A0007C08A1007D08A20010300310A20CC2
:10074A00A10CA00CFF3E031DA32B2008A300230825
:10075A00A9007808A0007908A1007A08A200103040
:10076A000310A20CA10CA00CFF3E031DB52B200800
:10077A00A3002308A9068030A0002008A905FC17B9
:10078A00FF30FB05FF30FC050030FD05F917FF308F
:10079A00F805FF30F9050030FA051830A0002008E6
:1007AA00A40001300310A50DA60DA70DFF3E031DE1
:1007BA00D72B7A087D02031DE82B79087C02031DDA
:1007CA00E82B78087B02031CF52B7808FB027908D2
:1007DA00031C790FFC027A08031C7A0AFD0225140D
:1007EA0001300310FB0DFC0DFD0DFF3E031DF62B22
:1007FA000130A402031DD62B2508F0002608F100BB
:10080A002708F2002808A0002008F3002908A10000
:10081A002108F4008A11E0217008F8007108F90033
:10082A007208FA0008006630F0001E30F10041300C
:10083A00F200831203134F08F3005008F400510822
:10084A00F5008A1183218A110318792C8312031364
:10085A0085120A30A0000030A1004F08F0005008AD
:10086A00F1005108F2008A1148228A117108831294
:10087A000313A301A3077008A201A2078A11862005
:10088A008A11831203132008D2005208DC000A30AE
:10089A00A7000030A8004F08F0005008F1005108E6
:1008AA00F2008A1148228A11710883120313A301E4
:1008BA00A3077008A201A2076430A0000030A100BB
:1008CA008A1186208A11831203132108AA01AA0712
:1008DA002008A901A9078A112621831203132708D0
:1008EA00D2005208DA00080083120313851600307A
:1008FA00A0002030A1004130A2004F08A3005008F8
:10090A00A4005108A5008A11DE248A118312031358
:10091A002008CF002108D0002208D1000A30A00008
:10092A000030A1004F08F0005008F1005108F20011
:10093A008A1148228A11710883120313A301A3079B
:10094A007008A201A2078A1186208A118312031352
:10095A002008D2005208DC000A30A7000030A800A4
:10096A004F08F0005008F1005108F2008A1148229D
:10097A008A11710883120313A301A3077008A20145
:10098A00A2076430A0000030A1008A1186208A11D3
:10099A00831203132108AA01AA072008A901A9079B
:1009AA008A112621831203132708D2005208DA007B
:1009BA000800831203132008A6002108A7002208B2
:1009CA00A8000310270D280DA9002908AA00AA08C3
:1009DA00031DF62C0030A0000030A1000030A20058
:1009EA0008002308A6002408A7002508A800031069
:1009FA00270D280DA9002908AF00AF08031D0C2DEB
:100A0A000030A0000030A1000030A20008002F082A
:100A1A007B3EA6002608AA072008A6002108A700F0
:100A2A002208A80010300310A80CA70CA60CFF3E41
:100A3A00031D182D2608A9002908AF002308A600BF
:100A4A002408A7002508A80010300310A80CA70C3A
:100A5A00A60CFF3E031D2A2D2608A9002908AF0669
:100A6A008030A6002608AF05A117A417FF30A305FA
:100A7A00FF30A4050030A5050030AB000030AC0003
:100A8A000030AD000730A6002608AE00201C5B2D02
:100A9A002308AB07240803110318240A031DAC0713
:100AAA00250803110318250A031DAD070130031099
:100ABA00A20CA10CA00CFF3E031D5C2D01300310FB
:100ACA00A30DA40DA50DFF3E031D642D0130AE023A
:100ADA00031D4B2D0930A6002608AE00201C832DCD
:100AEA002308AB07240803110318240A031DAC07C3
:100AFA00250803110318250A031DAD070130031049
:100B0A00A20CA10CA00CFF3E031D842D0130031082
:100B1A00AD0CAC0CAB0CFF3E031D8C2D0130AE02AC
:100B2A00031D732D2B08F0002C08F1002D08F2008C
:100B3A002A08A6002608F3002F08A7002708F400B1
:100B4A008A11E021700883120313A0007108A10022
:100B5A007208A2000800831203133008B600310895
:100B6A00B7003208B8000310370D380DB90039083C
:100B7A00BC003308B6003408B7003508B8000310C3
:100B8A00370D380DB9003908BB003C080319D92DB7
:100B9A003B083C020318E02D3C03FF3A3B07B60032
:100BAA0019303602031CE02D3308B0003408B100B6
:100BBA003508B20008003B08031908003C083B024C
:100BCA000318EF2D3B03FF3A3C07B60019303602F3
:100BDA00031808000630B6003608BA00B21BBA1766
:100BEA00B51B3A17B117FF30B005FF30B105003019
:100BFA00B205B417FF30B305FF30B4050030B505B0
:100C0A003B083C0203182F2E01300310B30DB40D1C
:100C1A00B50DFF3E031D0A2E0130BB023B083C0600
:100C2A0003192A2E0130BA023A08073903192A2E63
:100C3A00092E01300310B20CB10CB00CFF3E031D9B
:100C4A001F2E0130B6003608BC073C083B060319C4
:100C5A00582E1E2E3C083B020318582E0130031052
:100C6A00B00DB10DB20DFF3E031D342E0130BC0292
:100C7A003B083C060319542E0130BA023A080739D8
:100C8A000319542E332E01300310B50CB40CB30CD7
:100C9A00FF3E031D492E0130B6003608BB073C084B
:100CAA003B06031D482EBA1F6A2EFF30B006FF30DE
:100CBA00B106FF30B2060130B00700300318013028
:100CCA00B107003003180130B2073A1F7C2EFF30FB
:100CDA00B306FF30B406FF30B5060130B307003063
:100CEA0003180130B407003003180130B507BA0100
:100CFA003008B307310803110318310A031DB4077A
:100D0A00320803110318320A031DB507B51F9F2EB7
:100D1A00FF30B306FF30B406FF30B5060130B30723
:100D2A00003003180130B407003003180130B5074A
:100D3A00BA01BA0A3308F0003408F1003508F200A3
:100D4A003C08B6003608F3003A08B7003708F40042
:100D5A008A11E021700883120313B0007108B100F0
:100D6A007208B2000800003083120313CC0000306E
:100D7A00CD000030CE004408F901F9074308F80114
:100D8A00F8078A156A278A11780883120313A300C1
:100D9A007908A4007A08A5004408F901F90743086C
:100DAA00F801F8078A156A278A117808831203134B
:100DBA00A0007908A1007A08A2008A11DE248A110B
:100DCA00831203132008C9002108CA002208CB0095
:100DDA004908A3004A08A4004B08A5004408F901E1
:100DEA00F9074308F801F8078A156A278A1178086B
:100DFA0083120313A0007908A1007A08A2008A11BD
:100E0A00DE248A11831203132008C6002108C700B2
:100E1A002208C8004608A3004708A4004808A500FD
:100E2A00A030A000DF30A1003730A2008A11DE24F2
:100E3A008A11831203132008B0002108B100220886
:100E4A00B2004C08B3004D08B4004E08B5008A1130
:100E5A00B0258A11831203133008CC003108CD0063
:100E6A003208CE004408F901F9074308F801F807E7
:100E7A008A156A278A11780883120313A30079084E
:100E8A00A4007A08A500B030A0001330A1004230B7
:100E9A00A2008A11DE248A11831203132008B000EB
:100EAA002108B1002208B2004C08B3004D08B40072
:100EBA004E08B5008A11B0258A118312031330082F
:100ECA00CC003108CD003208CE007230BD00873028
:100EDA00BE004330BF004C08C0004D08C1004E0898
:100EEA00C2008A1106208A11831203133D08CC001E
:100EFA003E08CD003F08CE004408F901F90743082F
:100F0A00F801F8078A156A278A11780883120313E9
:100F1A00A3007908A4007A08A5004408F901F90792
:100F2A004308F801F8078A156A278A117808831294
:100F3A000313A0007908A1007A08A2008A11DE240E
:100F4A008A11831203132008C9002108CA00220843
:100F5A00CB004908A3004A08A4004B08A5006F303B
:100F6A00A000E630A1003C30A2008A11DE248A11DA
:100F7A00831203132008BD002108BE002208BF0007
:100F8A004C08C0004D08C1004E08C2008A11062054
:100F9A008A11831203133D08CC003E08CD003F0896
:100FAA00CE000030F8007A30F9004430FA004C08DC
:100FBA00FB004D08FC004E08FD008A1163237808E7
:100FCA0083120313CC007908CD007A08CE004C08AE
:100FDA00C3004D08C4004E08C5000800D601D70159
:100FEA00D801D901DA01DB01DC018A110520DD0013
:100FFA0083018A11D42A8A11D7288A11DD288A11F5
:10100A00E3288A11E9288A11EF288A11F5288A111A
:0E101A00FB288A1101298A1107298A110D2944
:101EBC008030831203139F002030831603139F007E
:101ECC00831203131F1408007808F0007908F1003E
:101EDC00F2018E30FB007B08F300F4018A11E02143
:101EEC007008F8007108F9007208FA0008007130E7
:101EFC00831603138F008B01811781160730831211
:101F0C000313990001308316031391008701C93024
:101F1C00850095010800F401F501701C9B2F7208D7
:101F2C00F4070318F50A7308F50701300310F20DD6
:101F3C00F30DFF3E031D9C2F01300310F10CF00C30
:101F4C00FF3E031DA32F71087004031D932F75080A
:101F5C00F101F1077408F001F0070800CF2F05110B
:101F6C00870105125C088A11D5208312031385148E
:101F7C000230F1007108DD000800851087010512A0
:101F8C005A088A11D520831203130515DD01DD0AC9
:101F9C000800831203135D08013A0319B52F033AA5
:101FAC000319C32FD92F0800FA01FB017708F1019F
:101FBC00F1077608F001F0074730F2000030F3002B
:101FCC008A1591278A157108F901F9077008F8012B
:101FDC00F807FA01FB0179087B02031DF72F78083B
:101FEC007A02031808000130FA070318FB0A0030C4
:041FFC00FB07F12FBF
:02400E00D4F0EC
:00000001FF
