:04000000FCEF09F018
:100800000020202076657273616F20312E33202006
:1008100020003E202076657273616F20312E3320D8
:10082000203C003E3E2076657273616F20312E338E
:10083000203C3C003E3E3E76657273616F20312E57
:10084000333C3C3C00456D6973736F7220646520D6
:1008500053696E616C002D204D656E7520436F6E7F
:10086000666967202D0053656E7469646F3A2000D5
:100870004C696E68613A200020566F6C74610049C3
:100880006461200049646100000083908382838456
:100890008386000E086E010E076EBFEC09F00F0E86
:1008A0000E6E830E0D6E040E0F6E000E116E050E91
:1008B000106E000E126E4FEC07F01A6E1A04D8A4D8
:1008C00004D0000E196E010E51D10F0E0E6E830E64
:1008D0000D6E050E0F6E000E116E050E106E000EE1
:1008E000126E4FEC07F01A6E1A04D8A404D0000E52
:1008F000196E020E3BD10F0E0E6E830E0D6E060E9C
:100900000F6E000E116E050E106E000E126E4FEC83
:1009100007F01A6E1A04D8A404D0000E196E030E44
:1009200025D10F0E0E6E830E0D6E070E0F6E000E8C
:10093000116E050E106E000E126E4FEC07F01A6E5F
:100940001A04D8A404D0000E196E0D0E0FD18380A6
:10095000839283848386000E086E010E076EBFECBF
:1009600009F00F0E0E6E830E0D6E040E0F6E000E4C
:10097000116E050E106E000E126E4FEC07F01A6E1F
:100980001A04D8A404D0000E196E040EEFD00F0E76
:100990000E6E830E0D6E050E0F6E000E116E050E9F
:1009A000106E000E126E4FEC07F01A6E1A04D8A4E7
:1009B00004D0000E196E050ED9D00F0E0E6E830EE8
:1009C0000D6E060E0F6E000E116E050E106E000EEF
:1009D000126E4FEC07F01A6E1A04D8A404D0000E61
:1009E000196E060EC3D00F0E0E6E830E0D6E070E1F
:1009F0000F6E000E116E050E106E000E126E4FEC93
:100A000007F01A6E1A04D8A404D0000E196E0E0E48
:100A1000ADD08380838283948386000E086E010E9E
:100A2000076EBFEC09F00F0E0E6E830E0D6E040EF6
:100A30000F6E000E116E050E106E000E126E4FEC52
:100A400007F01A6E1A04D8A404D0000E196E070E0F
:100A50008DD00F0E0E6E830E0D6E050E0F6E000EF6
:100A6000116E050E106E000E126E4FEC07F01A6E2E
:100A70001A04D8A404D0000E196E080E77D00F0EF9
:100A80000E6E830E0D6E060E0F6E000E116E050EAD
:100A9000106E000E126E4FEC07F01A6E1A04D8A4F6
:100AA00004D0000E196E090E61D00F0E0E6E830E6B
:100AB0000D6E070E0F6E000E116E050E106E000EFD
:100AC000126E4FEC07F01A6E1A04D8A404D0000E70
:100AD000196E0F0E4BD08380838283848396000E21
:100AE000086E010E076EBFEC09F00F0E0E6E830E3E
:100AF0000D6E040E0F6E000E116E050E106E000EC0
:100B0000126E4FEC07F01A6E1A04D8A404D0000E2F
:100B1000196E0C0E2BD00F0E0E6E830E0D6E050E81
:100B20000F6E000E116E050E106E000E126E4FEC61
:100B300007F01A6E1A04D8A404D0000E196E000E25
:100B400015D00F0E0E6E830E0D6E060E0F6E000E7C
:100B5000116E050E106E000E126E4FEC07F01A6E3D
:100B60001A04D8A405D0000E196E0B0E186E13D0FF
:100B70000F0E0E6E830E0D6E070E0F6E000E116EB1
:100B8000050E106E000E126E4FEC07F01A6E1A046E
:100B9000000E196E18681200010E38EC0AF0080EEB
:100BA0000F6E560E0E6EF0EC08F0C00E38EC0AF028
:100BB000080E0F6E700E0E6EF0EC08F00E0E38EC94
:100BC0000AF01D68020E1F6E1D6845EC04F01850F7
:100BD0001D6E3ED1300E26EC0AF00CD0000EF2D085
:100BE000000EF4D0000E2D6E000E1F6EC90E38ECF4
:100BF0000AF0EAD71F50000AD8B4F4D7010AD8B4D3
:100C0000EFD7030AD8B4EAD7DFD7310E26EC0AF0C3
:100C10000CD0010ED7D0010ED9D0010E2D6E000ED2
:100C20001F6EC90E38EC0AF0CFD71F50000AD8B497
:100C3000F4D7010AD8B4EFD7030AD8B4EAD7C4D797
:100C4000320E26EC0AF00CD0020EBCD0020EBED042
:100C5000020E2D6E000E1F6EC90E38EC0AF0B4D7CE
:100C60001F50000AD8B4F4D7010AD8B4EFD7030A4A
:100C7000D8B4EAD7A9D7330E26EC0AF00CD0030E6D
:100C8000A1D0030EA3D0030E2D6E000E1F6EC90E51
:100C900038EC0AF099D71F50000AD8B4F4D7010AEB
:100CA000D8B4EFD7030AD8B4EAD78ED7340E26ECDF
:100CB0000AF00CD0040E86D0040E88D0040E2D6EDF
:100CC000000E1F6EC90E38EC0AF07ED71F50000AC6
:100CD000D8B4F4D7010AD8B4EFD7030AD8B4EAD706
:100CE00073D7350E26EC0AF00CD0050E6BD0050E2E
:100CF0006DD0050E2D6E000E1F6EC90E38EC0AF079
:100D000063D71F50000AD8B4F4D7010AD8B4EFD77C
:100D1000030AD8B4EAD758D7360E26EC0AF00CD01E
:100D2000060E50D0060E52D0060E2D6E000E1F6E0F
:100D3000C90E38EC0AF048D71F50000AD8B4F4D7CF
:100D4000010AD8B4EFD7030AD8B4EAD73DD7370E93
:100D500026EC0AF00CD0070E35D0070E37D0070E60
:100D60002D6E000E1F6EC90E38EC0AF02DD71F50E5
:100D7000000AD8B4F4D7010AD8B4EFD7030AD8B41C
:100D8000EAD722D7380E26EC0AF00CD0080E1AD07B
:100D9000080E1CD0080E2D6E000E1F6EC90E38EC0A
:100DA0000AF012D71F50000AD8B4F4D7010AD8B4F9
:100DB000EFD7030AD8B4EAD707D7390E26EC0AF0E2
:100DC00010D0090E2A6E010EFED6090E2B6E000EF3
:100DD000FAD6090E2D6E000E1F6EC90E38EC0AF001
:100DE000F3D61F50000AD8B4F4D7010AD8B4EDD70F
:100DF000030AD8B4E6D7E8D62A50640DF3CF1BF027
:100E0000F4CF1CF02B500A0DF3501B26F4501C227B
:100E10002D501B24286E000E1C20296E3FD0000E82
:100E20002A6E000E2B6E000E2D6EC70E38EC0AF0E7
:100E3000000E1E6E04D0300E26EC0AF01E2A020EA2
:100E40001E64F9D7020E1F6EC70E38EC0AF0BCD62E
:100E50001D50000AD8B4BED6010AD8B4D6D6030AAB
:100E6000D8B4EED6010AD8B406D7070AD8B41ED72C
:100E7000010AD8B436D7030AD8B44ED7010AD8B479
:100E800066D70F0AD8B47ED7010AD8B496D7040A19
:100E9000D8B4B2D7030AD8B4C2D796D61200126615
:100EA00050D00DC0D9FF0EC0DAFFDF50136E0FC057
:100EB00014F0010E156E142A02D0D8901536142E97
:100EC000FCD7155013140009D8A43BD0010E166EA0
:100ED00010C007F011C008F0BFEC09F00DC0D9FF39
:100EE0000EC0DAFFDF50136E0FC014F0010E156E46
:100EF000142A02D0D8901536142EFCD7155013148E
:100F00000009D8A405D01604D8A402D0010E176E8B
:100F10000DC0D9FF0EC0DAFFDF50136E0FC014F002
:100F2000010E156E142A02D0D8901536142EFCD757
:100F3000155013140009D8B4D1D71704D8A4CED7AC
:100F400052D01204D8A455D00DC0D9FF0EC0DAFF7C
:100F5000DF50136E0FC014F0010E156E142A02D06C
:100F6000D8901536142EFCD7155013140009D8B498
:100F700040D0010E166E10C007F011C008F0BFEC93
:100F800009F00DC0D9FF0EC0DAFFDF50136E0FC09D
:100F900014F0010E156E142A02D0D8901536142EB6
:100FA000FCD7155013140009D8B405D01604D8A4E2
:100FB00002D0010E176E0DC0D9FF0EC0DAFFDF5050
:100FC000136E0FC014F0010E156E142A02D0D890C3
:100FD0001536142EFCD7155013140009D8A4D1D7F8
:100FE0001704D8A4CED7000E176E000E166E010E91
:100FF00001D0000E12001B68010E38EC0AF0080E3A
:101000000F6E560E0E6EF0EC08F0C00E38EC0AF0C3
:10101000080E0F6E660E0E6EF0EC08F0000E2F6ECE
:10102000100E2E6E080E0F6E7F0E0E6EF0EC08F096
:101030007E0E26EC0AF0080E0F6E0F0E0E6EF0EC10
:1010400008F01B6845EC04F018501B6E36D02E508B
:10105000100A2F10D8A4F5D7000E2F6E110E2E6E89
:10106000C90E38EC0AF07F0E26EC0AF0080E0F6E5F
:10107000780E0E6EF0EC08F0E4D72E50110A2F1007
:10108000D8A4DFD7000E2F6E100E2E6EC90E38ECCE
:101090000AF0080E0F6E7F0E0E6EF0EC08F07E0E5A
:1010A00026EC0AF0080E0F6E0F0E0E6EF0EC08F034
:1010B000C8D70C0E38EC0AF00BD01B500B0AD8B472
:1010C000C6D7070AD8B4D9D7010AD8B4F2D7B9D746
:1010D0001200010E38EC0AF0080E0F6E450E0E6E6F
:1010E000F0EC08F0000E156E37D0C00E38EC0AF0A8
:1010F000080E0F6E010E0E6EF0EC08F0010E086E79
:10110000F40E076EBFEC09F0C00E38EC0AF0080EC2
:101110000F6E120E0E6EF0EC08F0010E086EF40E5B
:10112000076EBFEC09F0C00E38EC0AF0080E0F6E27
:10113000230E0E6EF0EC08F0010E086EF40E076E32
:10114000BFEC09F0C00E38EC0AF0080E0F6E340E3A
:101150000E6EF0EC08F0152A030E1564C6D71200C7
:10116000010E38EC0AF0080E0F6E700E0E6EF0ECE9
:1011700008F02A5027EC09F026EC0AF02B5027EC57
:1011800009F026EC0AF02D5027EC09F026EC0AF0C5
:10119000C00E38EC0AF0080E0F6E660E0E6EF0EC04
:1011A00008F00ED0080E0F6E840E0E6EF0EC08F0F4
:1011B00016D0080E0F6E790E0E6EF0EC08F00FD000
:1011C0002EC015F02FC016F01650000AD8A407D074
:1011D0001550100AD8B4E6D7010AD8B4EAD71200DD
:1011E000000E126E000E136E000E146E02D0132A43
:1011F000122A1350010D0EC010F00FC011F0F35061
:101200001026F450112210C0F6FF11C0F7FF08009D
:10121000F5500009D8A4EBD7000E146E13D014506B
:10122000010D0EC010F00FC011F0F3501026F45055
:10123000112210C0F6FF11C0F7FF0800F55026EC90
:101240000AF0142A1250145CD8B01200E8D7016ECC
:1012500012D0310E30D0320E2ED0330E2CD0340EB0
:101260002AD0350E28D0360E26D0370E24D0380E90
:1012700022D0390E20D00150000AD8B41BD0010A68
:10128000D8B4E7D7030AD8B4E6D7010AD8B4E5D76B
:10129000070AD8B4E4D7010AD8B4E3D7030AD8B40C
:1012A000E2D7010AD8B4E1D70F0AD8B4E0D7010ACF
:1012B000D8B4DFD7300E12002368000E226E4AEC3D
:1012C0000AF08FEC09F0DFEC09F069EC08F0CCECE7
:1012D00005F0FBEC07F0B0EC08F059EC0AF02368DD
:1012E00045EC04F01850236E23500F0AD8A406D002
:1012F000CCEC05F0FBEC07F0B0EC08F066EC0AF083
:10130000226E2250206E216A2950211802E12850B5
:101310002018D8B48280285071EC0AF0E0D782906F
:10132000000E086E1E0E076EBFEC09F0030E806EF5
:1013300082828292000E086E1E0E076EBFEC09F0CC
:10134000030E806E82828292000E086E1E0E076E61
:10135000BFEC09F0030E806E82828292000E086E4E
:101360001E0E076EBFEC09F0020E806E8282829222
:10137000000E086E010E076EBFEC09F01200000EA1
:101380000C6E000E0B6E07C001F008C002F0000EDC
:10139000046E470E036E13EC0AF001C009F002C0A0
:1013A0000AF0000E0C6E000E0B6E02D00B4A0C2AD7
:1013B00009500B5C0A500C58D8B01200F7D7020E37
:1013C000806E82828292080E806E82828292000EED
:1013D000086E020E076EBFEC09F0000E806E82826E
:1013E00082920C0E806E82828292000E086E020E35
:1013F000076EBFEC09F0120000EE24F00A0EEE6A50
:10140000E806FDE1EE0EF66E140EF76E000EF86EB5
:101410000900F5CF2EF00900F5CF2FF0000EF86E81
:1014200000015CEF09F001500302F3CF05F0F4CFA7
:1014300006F001500402F350062602500302F35056
:10144000062605C001F006C002F012000D6E828073
:101450000D380F0B806E828282920DC080FF8282D7
:101460008292000E086E020E076EBFEC09F01200A9
:101470000D6E82900D380F0B806E828282920DC0AD
:1014800080FF82828292000E086E050E076EBFEC0E
:1014900009F01200730ED36E070EB46EF00E926E4A
:1014A000FC0E946EF00E956E000EF26E849E94907B
:1014B0001200200EAC6E800EAB6E000EB86E000EE9
:1014C000B86E0C0EAF6E949C948E1200000E016EDE
:1014D000AB889EAAFED7AECF01F0ABB2AB9801505D
:1014E0001200016E9EA8FED701C0ADFF12001000D1
:020000040020DA
:08000000FFFFFFFFFFFFFFFF00
:020000040030CA
:0E0000000008191EFF0381FF0FC00FE00F4024
:00000001FF
