:0600000000F07EEF01F0AC
:10000800FFFFFACF30F0FBCF31F0E9CF32F0EACF83
:1000180033F0E1CF34F0E2CF35F0D9CF36F0DACF94
:1000280037F0F3CF38F0F4CF39F0F6CF3AF0F7CF16
:100038003BF0F8CF3CF0F5CF3DF0F2A40FD0F294AE
:10004800CD90F00ED76EBD0ED66E56EC1CF035EC8A
:100058001AF04A6603D073EC16F0CD809EA02CD11E
:100068009E90E60ECF6E9B0ECE6E4A6625D1C80EC8
:100078004F5C000E5058D8B010D0C70E01EC1DF0E0
:10008800450E4EEC1DF0720E4EEC1DF0720E4EEC4D
:100098001DF0300E4EEC1DF00FD14FC009F050C0CE
:1000A8000AF0E9EC1CF009C011F00AC012F00BC00C
:1000B80013F04FC009F050C00AF0E9EC1CF009C079
:1000C8000EF00AC00FF00BC010F0FBEC15F00EC0DC
:1000D80041F00FC042F010C043F04FC009F050C0CB
:1000E8000AF0E9EC1CF009C011F00AC012F00BC0CC
:1000F80013F041C00EF042C00FF043C010F0FBEC0B
:1001080015F00EC03EF00FC03FF010C040F03EC0EA
:100118000EF03FC00FF040C010F04E0E116ED50E1D
:10012800126E370E136EFBEC15F00EC045F00FC0C3
:1001380046F010C047F04FC009F050C00AF0E9EC93
:100148001CF009C011F00AC012F00BC013F04FC028
:1001580009F050C00AF0E9EC1CF009C00EF00AC022
:100168000FF00BC010F0FBEC15F00EC041F00FC003
:1001780042F010C043F0CE0E116E880E126E3D0E86
:10018800136E41C00EF042C00FF043C010F0FBECFC
:1001980015F00EC020F00FC021F010C022F045C0AD
:1001A8001DF046C01EF047C01FF017EC1DF01DC023
:1001B80023F01EC024F01FC025F02BEC12F020C045
:1001C80045F021C046F022C047F045C020F046C0A7
:1001D80021F047C022F0D60E236E8B0E246E460EF9
:1001E800256E2BEC12F020C045F021C046F022C04D
:1001F80047F0E30E116E6C0E126E420E136E4FC076
:1002080009F050C00AF0E9EC1CF009C00EF00AC071
:100218000FF00BC010F0FBEC15F00EC01DF00FC076
:100228001EF010C01FF017EC1DF01DC020F01EC0FE
:1002380021F01FC022F045C023F046C024F047C07B
:1002480025F02BEC12F020C045F021C046F022C06A
:1002580047F045C001F046C002F047C003F0E2ECA9
:1002680016F001C02CF002C02DF003C02EF004C01F
:100278002FF02CC048F02DC049F048C00FF049C0FD
:1002880010F045EC11F0C70E01EC1DF02C6E000EBD
:10029800446E2C500ED04450010D0001AF0EF324D3
:1002A800D96E0001000EF420DA6EDF504EEC1DF01E
:1002B800442A030E4464EFD73DC0F5FF3CC0F8FF65
:1002C8003BC0F7FF3AC0F6FF39C0F4FF38C0F3FF70
:1002D80037C0DAFF36C0D9FF35C0E2FF34C0E1FFCE
:1002E80033C0EAFF32C0E9FF31C0FBFF30C0FAFF7C
:0802F8001100FFFFA5EF1AF051
:100600000005010007416A75737465206465204820
:100610006F7261733A003E3E3E20494E56414C494E
:10062000444F203C3C3C003E3E3E3E20434F44492C
:10063000474F203C3C3C3C00434F4449474F2053EC
:1006400045475552414E43410041706167616E64B8
:100650006F2056616C6F7265730054656D706F200A
:1006600064652053616C76653A004D6F646F204578
:10067000636F6E6F6D69636F004C6967616E646F65
:100680002E2E2E003330206D696E75746F73003618
:1006900030206D696E75746F73003135206D696E31
:1006A00075746F730056616C6F723A200052656CFE
:1006B0006F67696F0053616C766F28002A2A2A2AB7
:1006C000003A3030004C757800293A000000FFFFF6
:1006D00000019B6F010E4A6E00019B51CD90010EEF
:1006E000B4EC1CF0060E00010001846F380E00010E
:1006F0000001836F1BEC18F0C60EB4EC1CF0060E64
:1007000000010001846FBC0E00010001836F1BEC2F
:1007100018F00E0EB4EC1CF0100EB4EC1CF000013E
:100720009B6F000E000100019F6F00019B510001B3
:100730009B6F000E00010001A16F00019B510001A1
:100740009B6F000E00010001A26F00019B51000190
:100750009B6F000E00010001A36F00019B5100017F
:100760009B6F000E00010001A46F00019B510F0E52
:10077000000100018D6F800E000100018C6F0001EF
:100780009B6F030E000100018E6F00019B51000E54
:1007900000010001906F0A0E00018F6F00019C6F35
:1007A000000E00010001916F00019C5139EC0FF027
:1007B00000019D6F00019D05D8A418D00001000123
:1007C0009F51030AD8A40CD000019B6F000E0001BA
:1007D00000019F6F00019B51C90EB4EC1CF006D0C4
:1007E000000100019F2B100EB4EC1CF00F0E000155
:1007F00000018D6F800E000100018C6F00019B6F66
:10080000020E000100018E6F00019B51000E0001DD
:100810000001906F0A0E00018F6F00019C6F000EA7
:1008200000010001916F00019C5139EC0FF00001B3
:100830009D6F00019D05D8A427D2000100019F678C
:100840000CD000019B6F030E000100019F6F00019F
:100850009B51C60EB4EC1CF017D2000100019F079B
:10086000140EB4EC1CF010D20F0E000100018D6FBD
:10087000800E000100018C6F00019B6F040E0001CF
:1008800000018E6F00019B51000E00010001906F6E
:100890000A0E00018F6F00019C6F000E0001000125
:1008A000916F00019C5139EC0FF000019D6F000128
:1008B0009D05D8A41BD000010001A12B000100015F
:1008C000A1510A0AD8A408D000019B6F000E0001B4
:1008D0000001A16F00019B5100010001A151C1EC79
:1008E00019F040EC1DF0100EB4EC1CF00F0E0001DE
:1008F00000018D6F800E000100018C6F00019B6F65
:10090000050E000100018E6F00019B51000E0001D9
:100910000001906F0A0E00018F6F00019C6F000EA6
:1009200000010001916F00019C5139EC0FF00001B2
:100930009D6F00019D05D8A4B6D100010001A167FB
:1009400009D000019B6F090E00010001A16F000199
:100950009B5103D000010001A10700010001A1513A
:10096000C1EC19F040EC1DF0100EB4EC1CF09BD162
:100970000F0E000100018D6F800E000100018C6FD1
:1009800000019B6F040E000100018E6F00019B515E
:10099000000E00010001906F0A0E00018F6F000130
:1009A0009C6F000E00010001916F00019C5139EC19
:1009B0000FF000019D6F00019D05D8A41BD0000120
:1009C0000001A22B00010001A2510A0AD8A408D0FC
:1009D00000019B6F000E00010001A26F00019B51FE
:1009E00000010001A251C1EC19F040EC1DF0100E05
:1009F000B4EC1CF00F0E000100018D6F800E0001A1
:100A000000018C6F00019B6F050E000100018E6FCD
:100A100000019B51000E00010001906F0A0E0001C1
:100A20008F6F00019C6F000E00010001916F0001AB
:100A30009C5139EC0FF000019D6F00019D05D8A479
:100A400032D100010001A26709D000019B6F090E9D
:100A500000010001A26F00019B5103D000010001C1
:100A6000A20700010001A251C1EC19F040EC1DF0F9
:100A7000100EB4EC1CF017D10F0E000100018D6FA9
:100A8000800E000100018C6F00019B6F040E0001BD
:100A900000018E6F00019B51000E00010001906F5C
:100AA0000A0E00018F6F00019C6F000E0001000113
:100AB000916F00019C5139EC0FF000019D6F000116
:100AC0009D05D8A41BD000010001A32B000100014B
:100AD000A3510A0AD8A408D000019B6F000E0001A0
:100AE0000001A36F00019B5100010001A351C1EC63
:100AF00019F040EC1DF0100EB4EC1CF00F0E0001CC
:100B000000018D6F800E000100018C6F00019B6F52
:100B1000050E000100018E6F00019B51000E0001C7
:100B20000001906F0A0E00018F6F00019C6F000E94
:100B300000010001916F00019C5139EC0FF00001A0
:100B40009D6F00019D05D8A4AED000010001A367F0
:100B500009D000019B6F090E00010001A36F000185
:100B60009B5103D000010001A30700010001A35124
:100B7000C1EC19F040EC1DF0100EB4EC1CF093D059
:100B80000F0E000100018D6F800E000100018C6FBF
:100B900000019B6F040E000100018E6F00019B514C
:100BA000000E00010001906F0A0E00018F6F00011E
:100BB0009C6F000E00010001916F00019C5139EC07
:100BC0000FF000019D6F00019D05D8A41BD000010E
:100BD0000001A42B00010001A4510A0AD8A408D0E6
:100BE00000019B6F000E00010001A46F00019B51EA
:100BF00000010001A451C1EC19F040EC1DF0100EF1
:100C0000B4EC1CF00F0E000100018D6F800E00018E
:100C100000018C6F00019B6F050E000100018E6FBB
:100C200000019B51000E00010001906F0A0E0001AF
:100C30008F6F00019C6F000E00010001916F000199
:100C40009C5139EC0FF000019D6F00019D05D8A467
:100C50002AD000010001A46709D000019B6F090E92
:100C600000010001A46F00019B5103D000010001AD
:100C7000A40700010001A451C1EC19F040EC1DF0E3
:100C8000100EB4EC1CF00FD0000100019F51000ABF
:100C9000D8B4EAD5010AD8B46BD6030AD8B4ECD6D6
:100CA000010AD8B46DD70F0E000100018D6F810EBF
:100CB000000100018C6F00019B6F040E0001000118
:100CC0008E6F00019B51000E00010001906F0A0E13
:100CD00000018F6F00019C6F000E00010001916FF9
:100CE00000019C5139EC0FF000019D6F00019D0542
:100CF000D8B42FD00F0E000100018D6F810E0001BE
:100D000000018C6F00019B6F000E000100018E6FCF
:100D100000019B51000E00010001906F0A0E0001BE
:100D20008F6F00019C6F000E00010001916F0001A8
:100D30009C5139EC0FF000019D6F00019D05D8A476
:100D400016D500019B6F010E00010001AB6F000181
:100D50009B5100010001AB67E1D00C0EB4EC1CF01C
:100D6000010EF66E060EF76E0800FFFFF55000014B
:100D70000001A119D8A497D0030EF66E060EF76EE7
:100D80000800FFFFF55000010001A219D8A48BD084
:100D9000040EF66E060EF76E0800FFFFF550000118
:100DA0000001A319D8A47FD0020EF66E060EF76ECE
:100DB0000800FFFFF55000010001A419D8A473D06A
:100DC00000019B6F000E00010001AA6F00019B5102
:100DD00000019B6F000E00010001A06F00019B51FC
:100DE0002FD000010001A051020D0101000EF324DB
:100DF000D96E0101010EF420DA6E000EDE6E000ED7
:100E0000DD6E00010001A051010D0101400EF3242F
:100E1000D96E0101010EF420DA6E000EDF6E0001C2
:100E20000001A051010D0101600EF324D96E0101F2
:100E3000010EF420DA6E000EDF6E00010001A02B1F
:100E40001F0E00010001A065CCD7010EB4EC1CF010
:100E5000060E00010001846F490E00010001836F3E
:100E60001BEC18F0C00EB4EC1CF000019B6F000EE0
:100E7000000100019E6F00019B510FD0FF0E40EC5E
:100E80001DF0000E00010001876F5A0E0001866FF1
:100E900042EC1BF0000100019E2B0F0E000100012F
:100EA0009E65ECD72CD0010EB4EC1CF0060E0001B0
:100EB0000001846F270E00010001836F1BEC18F006
:100EC000C00EB4EC1CF0060E00010001846F160E7B
:100ED00000010001836F1BEC18F0010E00010001FE
:100EE000876FF40E0001866F42EC1BF0010E0001CB
:100EF0000001876FF40E0001866F42EC1BF0010EBB
:100F0000B4EC1CF0A0EC1BF000019B6F000E4A6ECD
:100F100000019B51D768FD0ED66E0AD000019B6F71
:100F2000000E00010001AB6F00019B5181EC15F038
:100F30001200FFFFFFFFD59ECD90010EB4EC1CF018
:100F4000060E00010001846F050E00010001836F91
:100F50001BEC18F009EC13F000019B6F000E000170
:100F60000001A46F00019B5100019B6F000E000166
:100F700000019E6F00019B510E0EB4EC1CF00001AD
:100F80009B6F000E000100019F6F00019B5106D076
:100F9000140EB4EC1CF0000100019F2B040E0001A4
:100FA00000019F65F5D70F0E000100018D6F800EC7
:100FB000000100018C6F00019B6F030E0001000116
:100FC0008E6F00019B51000E00010001906F0A0E10
:100FD00000018F6F00019C6F000E00010001916FF6
:100FE00000019C5139EC0FF000019D6F00019D053F
:100FF000D8A412D000010001A451020AD8A409D03B
:1010000000019B6F000E00010001A46F00019B51C5
:1010100003D000010001A42B0F0E000100018D6F11
:10102000800E000100018C6F00019B6F020E000119
:1010300000018E6F00019B51000E00010001906FB6
:101040000A0E00018F6F00019C6F000E000100016D
:10105000916F00019C5139EC0FF000019D6F000170
:101060009D05D8A49CD100010001A46709D000010E
:101070009B6F020E00010001A46F00019B518FD1F4
:1010800000010001A4078BD10F0E000100018D6F3C
:10109000800E000100018C6F00019B6F040E0001A7
:1010A00000018E6F00019B51000E00010001906F46
:1010B0000A0E00018F6F00019C6F000E00010001FD
:1010C000916F00019C5139EC0FF000019D6F000100
:1010D0009D05D8A421D04E2A4E503C0AD8A406D053
:1010E00000019B6F000E4E6E00019B5109EC13F046
:1010F00000019B6F000E00010001A06F00019B51D9
:1011000006D0140EB4EC1CF000010001A02B040E5C
:1011100000010001A065F5D70F0E000100018D6FE1
:10112000800E000100018C6F00019B6F050E000115
:1011300000018E6F00019B51000E00010001906FB5
:101140000A0E00018F6F00019C6F000E000100016C
:10115000916F00019C5139EC0FF000019D6F00016F
:101160009D05D8A428D14E064E6606D000019B6F7F
:101170003B0E4E6E00019B5109EC13F000019B6F7A
:10118000000E00010001A16F00019B5106D0140E5A
:10119000B4EC1CF000010001A12B040E00010001C1
:1011A000A165F5D708D10F0E000100018D6F800EEB
:1011B000000100018C6F00019B6F040E0001000113
:1011C0008E6F00019B51000E00010001906F0A0E0E
:1011D00000018F6F00019C6F000E00010001916FF4
:1011E00000019C5139EC0FF000019D6F00019D053D
:1011F000D8A421D04D2A4D503C0AD8A406D00001D5
:101200009B6F000E4D6E00019B5109EC13F0000125
:101210009B6F000E00010001A26F00019B5106D0E0
:10122000140EB4EC1CF000010001A22B010E000111
:101230000001A265F5D70F0E000100018D6F800E31
:10124000000100018C6F00019B6F050E0001000181
:101250008E6F00019B51000E00010001906F0A0E7D
:1012600000018F6F00019C6F000E00010001916F63
:1012700000019C5139EC0FF000019D6F00019D05AC
:10128000D8A499D04D6606D000019B6F3C0E4D6EE0
:1012900000019B514D0609EC13F000019B6F000EFD
:1012A00000010001A36F00019B5106D0140EB4ECA5
:1012B0001CF000010001A32B010E00010001A36539
:1012C000F5D779D00F0E000100018D6F800E00015F
:1012D00000018C6F00019B6F040E000100018E6FF6
:1012E00000019B51000E00010001906F0A0E0001E9
:1012F0008F6F00019C6F000E00010001916F0001D3
:101300009C5139EC0FF000019D6F00019D05D8A4A0
:1013100010D04C2A4C50180AD8A406D000019B6F5C
:10132000000E4C6E00019B5109EC13F0100EB4EC52
:101330001CF00F0E000100018D6F800E00010001F6
:101340008C6F00019B6F050E000100018E6F000184
:101350009B51000E00010001906F0A0E00018F6F7B
:1013600000019C6F000E00010001916F00019C5173
:1013700039EC0FF000019D6F00019D05D8A41BD032
:101380004C6606D000019B6F180E4C6E00019B51FD
:101390004C0609EC13F0100EB4EC1CF00CD000015C
:1013A0000001A451000AD8B46FD6010AD8B4FBD604
:1013B000030AD8B487D700010001A451000100013D
:1013C0009E19D8B416D0A4C09EF000010001A467F5
:1013D00004D0CB0EB4EC1CF00CD000010001A4052D
:1013E000D8A404D0C80EB4EC1CF003D0C50EB4ECE5
:1013F0001CF00F0E000100018D6F800E0001000136
:101400008C6F00019B6F010E000100018E6F0001C7
:101410009B51000E00010001906F0A0E00018F6FBA
:1014200000019C6F000E00010001916F00019C51B2
:1014300039EC0FF000019D6F00019D05D8B42FD04D
:101440000F0E000100018D6F810E000100018C6FF5
:1014500000019B6F000E000100018E6F00019B5187
:10146000000E00010001906F0A0E00018F6F000155
:101470009C6F000E00010001916F00019C5139EC3E
:101480000FF000019D6F00019D05D8A48CD50001CF
:101490009B6F010E00010001AB6F00019B51000129
:1014A0000001AB670DD00C0EB4EC1CF0010EB4ECD7
:1014B0001CF0A0EC1BF0D768FD0ED66ED58E0AD0BE
:1014C00000019B6F000E00010001AB6F00019B51FA
:1014D00081EC15F01200FFFFFFFF0001906F000E7E
:1014E00000010001916F000190510001906F000E0A
:1014F00000010001926F000190510001906F000EF9
:1015000000010001936F000190510001906F000EE7
:1015100000010001946F000190510001906F030ED3
:1015200000010001956F00019051000100018F51F1
:101530008E11D8B425D08EC080F08FC081F0000EFF
:1015400000010001836F0A0E0001826F7AEC19F02E
:1015500000010001805100010001916F00010001B4
:101560009551010D0001AF0EF324D96E0001000E5C
:10157000F420DA6E000100019151C1EC19F00DD098
:10158000000100019551010D0001AF0EF324D96E49
:101590000001000EF420DA6E300EDF6E0001000153
:1015A00095070A0E000100018E5D000E00018F59A3
:1015B000D8A034D0000E00010001836F640E00013A
:1015C000826F8EC080F08FC081F07AEC19F000013C
:1015D00080C086F0000181C087F0000E000100018C
:1015E000896F0A0E0001886F7DEC18F00001000180
:1015F000865100010001926F000100019551010D1B
:101600000001AF0EF324D96E0001000EF420DA6E53
:10161000000100019251C1EC19F00DD00001000150
:101620009551010D0001AF0EF324D96E0001000E9B
:10163000F420DA6E300EDF6E000100019507640EB3
:10164000000100018E5D000E00018F59D8A034D03A
:10165000030E00010001836FE80E0001826F8EC04F
:1016600080F08FC081F07AEC19F0000180C086F024
:10167000000181C087F0000E00010001896F640E37
:101680000001886F7DEC18F0000100018651000117
:101690000001936F000100019551010D0001AF0E93
:1016A000F324D96E0001000EF420DA6E000100016F
:1016B0009351C1EC19F00DD0000100019551010DBD
:1016C0000001AF0EF324D96E0001000EF420DA6E93
:1016D000300EDF6E000100019507E80E00010001E9
:1016E0008E5D030E00018F59D8A034D0270E000163
:1016F0000001836F100E0001826F8EC080F08FC0DA
:1017000081F07AEC19F0000180C086F0000181C000
:1017100087F0030E00010001896FE80E0001886F59
:101720007DEC18F000010001865100010001946F6A
:10173000000100019551010D0001AF0EF324D96E97
:101740000001000EF420DA6E000100019451C1EC9A
:1017500019F00DD0000100019551010D0001AF0EEF
:10176000F324D96E0001000EF420DA6E300EDF6E25
:101770001200FFFFFFFF00019E6F010E4A6E000185
:101780009E51CD90010EB4EC1CF0800EB4EC1CF018
:10179000060E00010001846FB50E00010001836F89
:1017A0001BEC18F0880EB4EC1CF0060E00010001D2
:1017B000846FC90E00010001836F1BEC18F08D0EC1
:1017C000B4EC1CF0060E00010001846FC10E000194
:1017D0000001836F1BEC18F0C00EB4EC1CF0060E79
:1017E00000010001846FA50E00010001836F1BEC56
:1017F00018F0CD0EB4EC1CF0060E00010001846F51
:10180000C50E00010001836F1BEC18F000019E6FF4
:10181000000E00010001AD6F00019E51F5EC0CF0CF
:1018200034EC1CF00F0E000100018D6F800E0001E2
:1018300000018C6F00019E6F020E000100018E6F8F
:1018400000019E51000E00010001906F0A0E000180
:101850008F6F00019F6F000E00010001916F00016A
:101860009F5139EC0FF00001A06F0001A005D8A432
:1018700015D000010001AD2B00010001AC510001A9
:101880000001AD5DD8A008D000019E6F000E0001E0
:101890000001AD6F00019E51F5EC0CF00F0E000140
:1018A00000018D6F800E000100018C6F00019E6FA2
:1018B000030E000100018E6F00019E51000E000119
:1018C0000001906F0A0E00018F6F00019F6F000EE4
:1018D00000010001916F00019F5139EC0FF00001F0
:1018E000A06F0001A005D8A40BD000010001AD67D6
:1018F00002D0ACC0ADF000010001AD07F5EC0CF07A
:101900000F0E000100018D6F810E000100018C6F30
:1019100000019E6F010E000100018E6F00019E51BB
:10192000000E00010001906F0A0E00018F6F000190
:101930009F6F000E00010001916F00019F5139EC73
:101940000FF00001A06F0001A005D8B42FD00F0E3A
:10195000000100018D6F810E000100018C6F0001FC
:101960009E6F000E000100018E6F00019E51000E5F
:1019700000010001906F0A0E00018F6F00019F6F40
:10198000000E00010001916F00019F5139EC0FF032
:101990000001A06F0001A005D8A444D700019E6FEC
:1019A000010E00010001AB6F00019E51000100011A
:1019B000AB670FD0010EB4EC1CF0A0EC1BF00001E3
:1019C0009E6F000E4A6E00019E51D768FD0ED66EC6
:1019D0000AD000019E6F000E00010001AB6F0001F4
:1019E0009E5181EC15F01200FFFFFFFF0001976F81
:1019F000000E00010001996F000197510001976FDF
:101A0000000E000100019A6F00019751860EB4ECA0
:101A10001CF000010001AD51D8B42DD0000E000122
:101A20000001836F640E0001826F00010001ADC0F0
:101A300080F000010001816BF8EC14F0000180C01F
:101A400087F0000181C088F0000E000100018A6F5C
:101A50000A0E0001896F5BEC14F000010001875150
:101A6000000100019A6F000100019A51C1EC19F0C8
:101A700040EC1DF003D0300E40EC1DF000010001E1
:101A8000AD51D8B41ED000010001ADC080F00001FE
:101A90000001816B000E00010001836F0A0E00013E
:101AA000826FF8EC14F00001000180510001000188
:101AB000996F000100019951C1EC19F040EC1DF043
:101AC00003D0300E40EC1DF000010001AD51010DBE
:101AD0000101400EF324D96E0101010EF420DA6EEB
:101AE000DF500001976F00019751000100018E6FD8
:101AF00000018F6B000E00010001916F520E00017A
:101B00000001906F0001986F020E00010001926FBA
:101B100000019851B7EC13F08D0EB4EC1CF00001ED
:101B2000976F000E000100019B6F0001975110D0CC
:101B3000000100019B51010D520EF324D96E000EDD
:101B4000F420DA6EDF5040EC1DF0000100019B2B09
:101B5000020E000100019B65EBD700010001AD51B1
:101B6000010D0101600EF324D96E0101010EF42074
:101B7000DA6EDF500001976F0001975100010001FC
:101B80008E6F00018F6B000E00010001916F580EE7
:101B900000010001906F0001986F010E000100012B
:101BA000926F00019851B7EC13F08B0EB4EC1CF05F
:101BB0000001976F000E000100019C6F000197511A
:101BC00010D0000100019C51010D580EF324D96E74
:101BD000000EF420DA6EDF5040EC1DF00001000131
:101BE0009C2B010E000100019C65EBD7C70EB4ECE5
:101BF0001CF000010001AD51020D0101000EF324A3
:101C0000D96E0101010EF420DA6E0001DECF8EF0F4
:101C10000001DDCF8FF06CEC0AF00001976F000E31
:101C2000000100019D6F0001975112D000010001D9
:101C30009D51010D0001AF0EF324D96E0001000E7D
:101C4000F420DA6EDF5040EC1DF0000100019D2B06
:101C5000030E000100019D65E9D71200FFFFFFFFA1
:101C600000019B6F010E4A6E00019B51CD90010E49
:101C7000B4EC1CF0060E00010001846F5A0E000146
:101C80000001836F1BEC18F0C00EB4EC1CF00001D7
:101C90000001AE514EEC17F00F0E000100018D6FE8
:101CA000800E000100018C6F00019B6F020E00018D
:101CB00000018E6F00019B51000E00010001906F2A
:101CC0000A0E00018F6F00019C6F000E00010001E1
:101CD000916F00019C5139EC0FF000019D6F0001E4
:101CE0009D05D8A416D000010001AE2B0001000113
:101CF000AE51030AD8A408D000019B6F000E00016A
:101D00000001AE6F00019B5100010001AE514EEC8D
:101D100017F00F0E000100018D6F800E0001000111
:101D20008C6F00019B6F030E000100018E6F00019C
:101D30009B51000E00010001906F0A0E00018F6F91
:101D400000019C6F000E00010001916F00019C5189
:101D500039EC0FF000019D6F00019D05D8A414D04F
:101D600000010001AE6708D000019B6F030E000167
:101D70000001AE6F00019B5100010001AE070001A0
:101D80000001AE514EEC17F00F0E000100018D6FF7
:101D9000810E000100018C6F00019B6F020E00019B
:101DA00000018E6F00019B51000E00010001906F39
:101DB0000A0E00018F6F00019C6F000E00010001F0
:101DC000916F00019C5139EC0FF000019D6F0001F3
:101DD0009D05D8B42FD00F0E000100018D6F810E2C
:101DE000000100018C6F00019B6F000E00010001DB
:101DF0008E6F00019B51000E00010001906F0A0ED2
:101E000000018F6F00019C6F000E00010001916FB7
:101E100000019C5139EC0FF000019D6F00019D0500
:101E2000D8A43AD700019B6F010E00010001AB6FEF
:101E300000019B5100010001AB670FD0010EB4EC13
:101E40001CF0A0EC1BF000019B6F000E4A6E00011D
:101E50009B51D768FD0ED66E0AD000019B6F000E15
:101E600000010001AB6F00019B5181EC15F01200E5
:101E7000FFFFFFFF00010001916775D08CC0D9FF03
:101E80008DC0DAFFDF500001926F8EC093F0010E1B
:101E90000001946F0001932B03D00001D890943778
:101EA0000001932FFAD70001945100019215000907
:101EB000D8A459D00001926F010E00010001956F66
:101EC000000192518FC086F090C087F042EC1BF069
:101ED0008CC0D9FF8DC0DAFFDF500001926F8EC039
:101EE00093F0010E0001946F0001932B03D00001C9
:101EF000D89094370001932FFAD700019451000134
:101F000092150009D8A40DD0000100019505D8A4B0
:101F100008D00001926F010E00010001966F0001D0
:101F200092518CC0D9FF8DC0DAFFDF500001926F53
:101F30008EC093F0010E0001946F0001932B03D02B
:101F40000001D89094370001932FFAD700019451E3
:101F5000000192150009D8B4BBD700010001960515
:101F6000D8A4B6D779D0000100019105D8A486D0B5
:101F70008CC0D9FF8DC0DAFFDF500001926F8EC098
:101F800093F0010E0001946F0001932B03D0000128
:101F9000D89094370001932FFAD700019451000193
:101FA00092150009D8B46AD00001926F010E0001A9
:101FB0000001956F000192518FC086F090C087F0AC
:101FC00042EC1BF08CC0D9FF8DC0DAFFDF5000015E
:101FD000926F8EC093F0010E0001946F0001932B5D
:101FE00003D00001D89094370001932FFAD7000155
:101FF0009451000192150009D8B40DD000010001E0
:102000009505D8A408D00001926F010E00010001CF
:10201000966F000192518CC0D9FF8DC0DAFFDF505E
:102020000001926F8EC093F0010E0001946F0001C9
:10203000932B03D00001D89094370001932FFAD747
:1020400000019451000192150009D8A4BBD70001EA
:1020500000019605D8A4B6D70001926F000E0001CA
:102060000001966F000192510001926F000E000175
:102070000001956F00019251010E01D0000E120077
:10208000FFFFFFFFD0EC1CF011EC1CF068EC1DF022
:1020900034EC1CF0DCEC1AF0000E00010001A96F1A
:1020A000000E0001A86FE80E00010001A85DFD0E02
:1020B0000001A959D8B0F0D7A8C080F0A9C081F01C
:1020C000040E00010001836FE20E0001826F7AECC2
:1020D00019F000010001815100018011D8A408D03D
:1020E000C7EC1BF0000180C04FF0000181C050F030
:1020F0000F0E000100018D6F800E000100018C6F3A
:102100000001A56F010E000100018E6F0001A551B5
:10211000000E00010001906F0A0E00018F6F000198
:10212000A66F000E00010001916F0001A65139EC6D
:102130000FF00001A76F0001A705D8B49AEC07F0D3
:102140000F0E000100018D6F810E000100018C6FE8
:102150000001A56F010E000100018E6F0001A55165
:10216000000E00010001906F0A0E00018F6F000148
:10217000A66F000E00010001916F0001A65139EC1D
:102180000FF00001A76F0001A705D8B4BAEC0BF05F
:102190000F0E000100018D6F810E000100018C6F98
:1021A0000001A56F020E000100018E6F0001A55114
:1021B000000E00010001906F0A0E00018F6F0001F8
:1021C000A66F000E00010001916F0001A65139ECCD
:1021D0000FF00001A76F0001A705D8B42FEC0EF097
:1021E0000F0E000100018D6F810E000100018C6F48
:1021F0000001A56F040E000100018E6F0001A551C2
:10220000000E00010001906F0A0E00018F6F0001A7
:10221000A66F000E00010001916F0001A65139EC7C
:102220000FF00001A76F0001A705D8B467EC03F019
:102230000F0E000100018D6F810E000100018C6FF7
:102240000001A56F000E000100018E6F0001A55175
:10225000000E00010001906F0A0E00018F6F000157
:10226000A66F000E00010001916F0001A65139EC2C
:102270000FF00001A76F0001A705D8B481EC15F09D
:1022800000010001A84BA92B0ED7FFFF116E000E15
:10229000126E1150116E000E136E1150116E000E61
:1022A000146E1150116E000E156E1150116E030E4A
:1022B000166E115010500F10D8B41AD00FC001F084
:1022C00010C002F0000E046E0A0E036EECEC1BF060
:1022D0000150126E1650010D0001AF0EF324D96E9D
:1022E0000001000EF420DA6E12506DEC1AF00BD0E3
:1022F0001650010D0001AF0EF324D96E0001000E3F
:10230000F420DA6E300EDF6E16060A0E0F5C000E39
:102310001058D8A024D0000E046E640E036E0FC0B7
:1023200001F010C002F0ECEC1BF001C007F002C09D
:1023300008F0000E0A6E0A0E096E73EC1BF00750CF
:10234000136E1650010D0001AF0EF324D96E00017B
:10235000000EF420DA6E13506DEC1AF00BD016500C
:10236000010D0001AF0EF324D96E0001000EF42020
:10237000DA6E300EDF6E1606640E0F5C000E10581B
:10238000D8A024D0030E046EE80E036E0FC001F037
:1023900010C002F0ECEC1BF001C007F002C008F026
:1023A000000E0A6E640E096E73EC1BF00750146E7B
:1023B0001650010D0001AF0EF324D96E0001000E7E
:1023C000F420DA6E14506DEC1AF00BD01650010D9B
:1023D0000001AF0EF324D96E0001000EF420DA6E76
:1023E000300EDF6E1606E80E0F5C030E1058D8A0F4
:1023F00024D0270E046E100E036E0FC001F010C023
:1024000002F0ECEC1BF001C007F002C008F0030E74
:102410000A6EE80E096E73EC1BF00750156E16502D
:10242000010D0001AF0EF324D96E0001000EF4205F
:10243000DA6E15506DEC1AF00BD01650010D00013C
:10244000AF0EF324D96E0001000EF420DA6E300EC8
:10245000DF6E1200FFFFFFFF22C026F0276A286A06
:102460002134263601E3278026502B6E25C026F026
:10247000276A286A2434263601E3278026502A6EEC
:102480002B50D8B40CD02A502B5CD8B00FD02B5086
:1024900000082A24266E190E265CD8A007D023C077
:1024A00020F024C021F025C022F0B1D02A50D8B4A9
:1024B0000CD02B502A5CD8B00FD02A5000082B2407
:1024C000266E190E265CD8A007D020C020F021C0AF
:1024D00021F022C022F09BD0266E060E296E2650D7
:1024E00022BE298E25BE298C218EFF0E2016FF0EBE
:1024F0002116000E2216248EFF0E2316FF0E241620
:10250000000E25162A502B5CD8B01AD0D89023364E
:10251000243625362A062A502B18D8B40DD0290681
:1025200029C026F0070E2616D8B406D0EFD7D890CB
:102530002232213220322B2A2A502B62F8D71DD08A
:102540002B502A5CD8B019D0D890203621362236AC
:102550002B062A502B18D8B40DD0290629C026F0F6
:10256000070E2616D8B406D0EFD7D89025322432DD
:1025700023322A2A2A502B62F8D729AE0CD0FF0E1C
:10258000201AFF0E211AFF0E221A010E2026000E1D
:102590002122000E222229AC0CD0FF0E231AFF0E9E
:1025A000241AFF0E251A010E2326000E2422000EE7
:1025B0002522266E000E296E2650205023262150FB
:1025C00024222250252225AE10D0FF0E231AFF0E02
:1025D000241AFF0E251A010E2326000E2422000EB7
:1025E0002522266E010E296E265023C001F024C03C
:1025F00002F025C003F02BC004F029C005F0D4EC94
:1026000018F001C020F002C021F003C022F0120037
:10261000FFFFFFFF00014EC08EF0000100018F6B35
:10262000000E00010001916F550E00010001906F36
:102630000001976F020E00010001926F0001975197
:10264000B7EC13F0C90EB4EC1CF00001976F000E4C
:1026500000010001986F0001975110D000010001A6
:102660009851010D550EF324D96E000EF420DA6E48
:10267000DF5040EC1DF000010001982B020E00011C
:1026800000019865EBD700014DC08EF000010001FC
:102690008F6B000E00010001916F520E00010001CE
:1026A000906F0001976F020E00010001926F000110
:1026B0009751B7EC13F0C60EB4EC1CF00001976F05
:1026C000000E00010001996F0001975110D0000128
:1026D00000019951010D520EF324D96E000EF42021
:1026E000DA6EDF5040EC1DF000010001992B020E64
:1026F000000100019965EBD700014CC08EF000018C
:1027000000018F6B000E00010001916F580E000157
:102710000001906F0001976F010E00010001926FA0
:1027200000019751B7EC13F0C40EB4EC1CF000019B
:10273000976F000E000100019A6F0001975110D0B1
:10274000000100019A51010D580EF324D96E000EBC
:10275000F420DA6EDF5040EC1DF0000100019A2BEE
:10276000010E000100019A65EBD71200FFFFFFFF89
:102770000001936F000E00010001946F000193515E
:102780000001936F000E00010001956F000193514D
:1027900092C096F0000100018F518E11D8B427D05D
:1027A0008EC080F08FC081F0000E00010001836FA9
:1027B0000A0E0001826F7AEC19F0000100018051CD
:1027C00000010001946F000100019651010DF350CA
:1027D000000100019025D96EF45000010001912103
:1027E000DA6E000100019451C1EC19F00FD0000124
:1027F00000019651010DF350000100019025D96EA2
:10280000F450000100019121DA6E300EDF6E0001FC
:10281000000196070A0E000100018E5D000E000106
:102820008F59D8A036D0000E00010001836F640ECE
:102830000001826F8EC080F08FC081F07AEC19F0B9
:10284000000180C086F0000181C087F0000E000109
:102850000001896F0A0E0001886F7DEC18F00001FD
:102860000001865100010001956F000100019651A1
:10287000010DF350000100019025D96EF4500001C4
:1028800000019121DA6E000100019551C1EC19F0AF
:102890000FD0000100019651010DF350000100011D
:1028A0009025D96EF450000100019121DA6E300EAE
:1028B000DF6E1200FFFFFFFF00018B6F000E0001B3
:1028C00000018D6F00018B51000100018A51800AC7
:1028D000F36E800EF35C000ED8B4895DD8B00FD0D3
:1028E00000010001896D00018A1FD8B08A2B000108
:1028F0008B6F010E000100018D6F00018B510001F3
:1029000000018851800AF36E800EF35C000ED8B48B
:10291000875DD8B00BD000010001876D0001881FD2
:10292000D8B0882B010E000100018D1B000E0001A4
:1029300000018F6F000E00018E6F000100018A51AF
:102940008911D8B443D000018B6F010E0001000142
:102950008C6F00018B5109D0000100010001D8905B
:1029600089378A37000100018C2B000100018AAFF2
:10297000F3D7000100010001D8908E378F37000196
:102980000001895100010001875D000100018A51A9
:10299000000100018859D8A00FD000010001895121
:1029A00000010001875F000100018A510001000160
:1029B000885B000100018E81000100010001D890B8
:1029C0008A338933000100018C2FD3D70001000125
:1029D0008D51D8B407D0000100018E6D00018F1F0A
:1029E000D8B08F2B8EC087F08FC088F01200FFFF09
:1029F000FFFF0001846F000E00010001866F0001DF
:102A00008451000100018151800AF36E800EF35C55
:102A1000000ED8B4805DD8B00FD000010001806DE9
:102A20000001811FD8B0812B0001846F010E0001CD
:102A30000001866F00018451000100018351800A6A
:102A4000F36E800EF35C000ED8B4825DD8B007D070
:102A500000010001826D0001831FD8B0832B0001AB
:102A6000000183518211D8B43AD00001846F010E65
:102A700000010001856F0001845109D000010001AF
:102A80000001D8908237833700010001852B0001B7
:102A9000000183AFF3D70001000182510001000162
:102AA000805D000100018351000100018159D8A01F
:102AB0000CD000010001825100010001805F000183
:102AC0000001835100010001815B00010001000150
:102AD000D8908333823300010001852FDCD70001B9
:102AE00000018651D8B407D000010001806D0001BB
:102AF000811FD8B0812B80C080F081C081F012008E
:102B0000FFFFFFFF0001976F010E4A6E0001975112
:102B1000D58E010EB4EC1CF00C0EB4EC1CF0060EBD
:102B200000010001846F6A0E00010001836F1BEC3D
:102B300018F0C00EB4EC1CF00001976F000E0001FD
:102B400000019A6F000197510FD0FF0E40EC1DF06D
:102B5000000E00010001876F5A0E0001866F42ECE3
:102B60001BF0000100019A2B0F0E000100019A6575
:102B7000ECD7080EB4EC1CF081969568EF0E966EBB
:102B80000F0E000100018D6F810E000100018C6F9E
:102B90000001976F000E000100018E6F0001975138
:102BA000000E00010001906F0A0E00018F6F0001FE
:102BB000986F000E00010001916F0001985139ECEF
:102BC0000FF00001996F00019905D8A4D9D711EC35
:102BD0001CF0010EB4EC1CF08186A0EC1BF0D76851
:102BE000FD0ED66ED58E0001976F000E4A6E000165
:102BF00097511200FFFFFFFF10C014F0156A166A0C
:102C00000F34143601E315801450176E176601D087
:102C10000CD013C014F0156A166A1234143601E38E
:102C2000158014501C6E1C6607D0000E0E6E000E30
:102C30000F6E000E106E55D01C507B0F172610C063
:102C40001CF013501C1A800E1C160F8E128EFF0ED5
:102C50001116FF0E1216000E1316000E186E000E3F
:102C6000196E000E1A6E146E070E1B6E14500EA015
:102C700006D0115018261250192213501A22D8903B
:102C800010320F320E32D8901136123613361B2EF8
:102C9000EED7146E090E1B6E14500EA006D0115004
:102CA00018261250192213501A22D89010320F32BF
:102CB0000E32D8901A32193218321B2EEED718C0A5
:102CC00001F019C002F01AC003F017C004F01CC0D4
:102CD00005F0D4EC18F001C00EF002C00FF003C0F4
:102CE00010F01200FFFFFFFF4EC00FF0106A000E41
:102CF000126E550E116E186E020E136E1850B5EC52
:102D000017F08D0E01EC1DF0186E000E196E1850A4
:102D10000CD01950010D550EF324D96E000EF4207D
:102D2000DA6EDF504EEC1DF0192A020E1964F1D74D
:102D30004DC00FF0106A000E126E520E116E186E1A
:102D4000020E136E1850B5EC17F08A0E01EC1DF050
:102D5000186E000E1A6E18500CD01A50010D520E3B
:102D6000F324D96E000EF420DA6EDF504EEC1DF025
:102D70001A2A020E1A64F1D74CC00FF0106A000E26
:102D8000126E580E116E186E010E136E1850B5ECBF
:102D900017F0880E01EC1DF0186E000E1B6E185017
:102DA0000CD01B50010D580EF324D96E000EF420E8
:102DB000DA6EDF504EEC1DF01B2A010E1B64F1D7BA
:102DC0001200FFFFFFFF03C005F0066A076A023426
:102DD000053601E3068005500F6E0F6601D038D02E
:102DE000170E056E01C006F002C007F003C008F020
:102DF0000528096E04D0D890083207320632092E11
:102E0000FAD706500A6E028EFF0E0116FF0E02164A
:102E1000000E031601500B6E02500C6E03500D6E27
:102E20000E6A8E0E0F5E0FAE10D00F50800A056E28
:102E3000F10E800A055CD8A00BD0D8900E320D326E
:102E40000C320B320F3EF9D714D0170E0F640FD08F
:102E5000000E016E000E026E000E036E000E046E78
:102E60001BD0D8900B360C360D360E360F060F667B
:102E7000F8D70A50D8B408D00E1E0D1E0C1E0B6CCD
:102E8000000E0C220D220E220BC001F00CC002F02D
:102E90000DC003F00EC004F01200FFFFFFFFE8CFEB
:102EA0008DF0010EB4EC1CF0060E00010001846FE1
:102EB0005A0E00010001836F1BEC18F0C30EB4EC36
:102EC0001CF045D0060E00010001846F9A0E00012F
:102ED0000001836F1BEC18F0C00EB4EC1CF07F0EE9
:102EE00040EC1DF0CF0EB4EC1CF07E0E40EC1DF05B
:102EF0003AD0060E00010001846F840E000100012B
:102F0000836F1BEC18F0C00EB4EC1CF07F0E40EC8D
:102F10001DF0CF0EB4EC1CF07E0E40EC1DF023D063
:102F2000060E00010001846F8F0E00010001836F07
:102F30001BEC18F0C00EB4EC1CF07F0E40EC1DF042
:102F4000CF0EB4EC1CF07E0E40EC1DF00CD0000156
:102F500000018D51000AD8B4B5D7010AD8B4C9D739
:102F6000030AD8B4DDD71200FFFFFFFF146E000E76
:102F7000156E1450146E000E166E145013C017F018
:102F800010500F10D8B418D00FC001F010C002F0CC
:102F9000000E046E0A0E036EECEC1BF00150156E71
:102FA0001750010DF3501124D96EF4501220DA6E2F
:102FB00015506DEC1AF009D01750010DF350112483
:102FC000D96EF4501220DA6E300EDF6E17060A0E3C
:102FD0000F5C000E1058D8A022D0000E046E640EB4
:102FE000036E0FC001F010C002F0ECEC1BF001C04A
:102FF00007F002C008F0000E0A6E0A0E096E73ECAC
:103000001BF00750166E1750010DF3501124D96EA6
:10301000F4501220DA6E16506DEC1AF009D01750E9
:10302000010DF3501124D96EF4501220DA6E300ED7
:10303000DF6E1200FFFFFFFF0001856F000E000131
:103040000001876F000185510001856F000E0001AE
:103050000001886F0001855106D000010001882B16
:1030600000010001872B000100018851010D0001C2
:1030700083C085F0000184C086F0F35000018527ED
:10308000F4500001862385C0F6FF86C0F7FF0800D4
:10309000FFFFF5500009D8A4E0D70001856F000EAE
:1030A00000010001896F000185511CD00001000161
:1030B0008951010D000183C085F0000184C086F0B4
:1030C000F35000018527F4500001862385C0F6FFE8
:1030D00086C0F7FF0800FFFFF55040EC1DF000012F
:1030E0000001892B00010001875100010001895D69
:1030F000D8B01200FFFFDAD7FFFFFFFF000E00017C
:1031000000018C6F000E00018B6F000100018951DE
:103110008811D8B443D000018A6F010E000100016C
:103120008D6F00018A5109D0000100010001D89083
:1031300088378937000100018D2B0001000189AF1C
:10314000F3D7000100010001D8908B378C370001C4
:103150000001885100010001865D000100018951D4
:10316000000100018759D8A00FD00001000188514B
:1031700000010001865F000100018951000100018A
:10318000875B000100018B81000100010001D890E4
:1031900089338833000100018D2FD3D78BC086F08F
:1031A0008CC087F01200FFFFFFFF0450D8B405D099
:1031B000015002100310D8A40CD0000E016E000EB6
:1031C000026E000E036E44D0042AD89003320232FD
:1031D0000132000E0114066E000E0214076EFE0E80
:1031E0000314086E065007100810D8B40CD0ECD7A2
:1031F000042A010E0126000E0222000E0322D8909E
:10320000033202320132000E0114066E000E021467
:10321000076EFF0E0314086E065007100810D8B48E
:1032200006D0E6D70406D89001360236033602AE41
:10323000F9D704A0029ED89004320450031205501E
:10324000D8A4038E01C001F002C002F003C003F055
:103250001200FFFFFFFF056E000E076E05500250C3
:10326000800AF36E800EF35C000ED8B4015CD8B017
:1032700008D0016C021ED8B0022A056E010E076E3E
:1032800005500450800AF36E800EF35C000ED8B433
:10329000035CD8B004D0036C041ED8B0042A0450D8
:1032A0000310D8B41AD0056E010E066E055004D076
:1032B000D89003360436062A04AEFAD70350015CD0
:1032C00004500258D8A004D00350015E0450025AA2
:1032D000D89004320332062EF1D70750D8B404D068
:1032E000016C021ED8B0022A01C001F002C002F037
:1032F0001200FFFFFFFF0001000183518211D8B4CB
:103300003AD00001846F010E00010001856F0001B9
:10331000845109D0000100010001D8908237833721
:1033200000010001852B0001000183AFF3D70001EC
:103330000001825100010001805D00010001835104
:10334000000100018159D8A00CD000010001825178
:1033500000010001805F00010001835100010001B4
:10336000815B000100010001D890833382330001AA
:103370000001852FDCD780C080F081C081F0120071
:10338000FFFFFFFFE8CF80F012D0310E32D0320EB7
:1033900030D0330E2ED0340E2CD0350E2AD0360E2F
:1033A00028D0370E26D0380E24D0390E22D0000176
:1033B00000018051000AD8B41BD0010AD8B4E5D767
:1033C000030AD8B4E4D7010AD8B4E3D7070AD8B4BB
:1033D000E2D7010AD8B4E1D7030AD8B4E0D7010A8A
:1033E000D8B4DFD70F0AD8B4DED7010AD8B4DDD7F6
:1033F000300E1200FFFFFFFF00010001AC51000181
:103400000001AA5DD8B02FD000010001AA51020D21
:103410000101000EF324D96E0101010EF420DA6ED1
:103420004FC0DEFF50C0DDFF00010001AA51010DB9
:103430000101400EF324D96E0101010EF420DA6E71
:103440004DC0DFFF00010001AA51010D0101600E16
:10345000F324D96E0101010EF420DA6E4CC0DFFFB7
:1034600000010001AA2B1200FFFFFFFF2AD04D50E0
:10347000D8B431D04DC001F0026A000E046E0F0EB8
:10348000036E2AEC19F002500110D8A424D04E6625
:1034900022D0FBEC19F01FD04D50D8B41CD04DC039
:1034A00001F0026A000E046E1E0E036E2AEC19F083
:1034B00002500110D8A40FD04E660DD0FBEC19F0CD
:1034C0000AD000010001AE51000AD8B4D0D7010AD9
:1034D000D8B4E2D7030A1200FFFFFFFFE8CF01F0E4
:1034E00012D0310E30D0320E2ED0330E2CD0340EFE
:1034F0002AD0350E28D0360E26D0370E24D0380EDE
:1035000022D0390E20D00150000AD8B41BD0010AB5
:10351000D8B4E7D7030AD8B4E6D7010AD8B4E5D7B8
:10352000070AD8B4E4D7010AD8B4E3D7030AD8B459
:10353000E2D7010AD8B4E1D70F0AD8B4E0D7010A1C
:10354000D8B4DFD7300E1200FFFF01EE00F0800E7E
:10355000EE6AE806FDE10001AE6BAD6BAC6BAB6BE8
:10356000AA6B00EE45F00C0EEE6AE806FDE1E90EEE
:10357000F66E3A0EF76E000EF86E00EEAFF010EE3B
:1035800004F00900F5CFEEFFE550E150FAE1E00E5E
:10359000F66E3A0EF76E000EF86E00EE51F010EE79
:1035A00009F00900F5CFEEFFE550E150FAE1000E19
:1035B000F86E000141EF10F0FFFF060E0001000160
:1035C000846F790E00010001836F1BEC18F0C00EB0
:1035D000B4EC1CF000018D6F000E000100018E6F35
:1035E00000018D510FD0FF0E40EC1DF0000E0001C8
:1035F0000001876F5A0E0001866F42EC1BF000013C
:1036000000018E2B0F0E000100018E65ECD7010E1C
:10361000B4EC1CF0A0EC1BF0D58E1200FFFFFFFFF6
:10362000000100018051000100018203F3CF84F00A
:10363000F4CF85F0000100018051000100018303F7
:10364000F3CFF4FFF36AF350000100018427F45034
:1036500000010001852300010001815100010001EA
:103660008203F3CFF4FFF36AF350000100018427D3
:10367000F45000010001852384C080F085C081F0F2
:103680001200FFFFFFFF86C080F087C081F0000EB0
:1036900000010001836F470E0001826F0FEC1BF0E9
:1036A000000180C088F0000181C089F0000E000197
:1036B00000018B6F000E00018A6F04D00001000131
:1036C0008A4B8B2B000100018851000100018A5DAB
:1036D000000100018951000100018B59D8B012008E
:1036E000FFFFECD7FFFFFFFF000E0D6E000E0C6E0C
:1036F0000A500910D8B41ED00B6E010E0E6E0B507E
:1037000004D0D89009360A360E2A0AAEFAD7D890D5
:103710000C360D360950075C0A500858D8A005D061
:103720000950075E0A50085A0C80D8900A320932B4
:103730000E2EEDD70CC007F00DC008F01200FFFFF1
:10374000FFFF060E00010001846FAD0E00010001B5
:10375000836F1BEC18F0C00EB4EC1CF0060E0001D9
:103760000001846FA50E00010001836F1BEC18F0AF
:10377000CD0EB4EC1CF0060E00010001846FC50EE6
:1037800000010001836F1BEC18F01200FFFFFFFF28
:10379000000E00010001836F000E0001826FC284E1
:1037A000C2B4FED70001C4CF82F000010001836BD8
:1037B0000001000182510001836F0001826BC35040
:1037C000000100018227000E0001832382C080F0E7
:1037D00083C081F01200FFFFFFFF04500310D8B434
:1037E0001AD0056E010E066E055004D0D89003362F
:1037F0000436062A04AEFAD70350015C045002587E
:10380000D8A004D00350015E0450025AD89004326C
:103810000332062EF1D701C001F002C002F01200FF
:10382000FFFFFFFF000E00010001876F0A0E00017D
:10383000866F42EC1BF0000E956EE80E966E849239
:10384000380EB4EC1CF0060EB4EC1CF00C0EB4EC0C
:103850001CF0030EB4EC1CF0010EB4EC1CF0800E56
:10386000B4EC1CF01200FFFFFFFF00010001AE6787
:1038700004D00001806F200E12D000010001AE05BF
:10388000D8A404D00001806F100E09D000010001FF
:10389000AE51020AD8A408D00001806F080E0001C2
:1038A0000001AC6F000180511200FFFFFFFF4E2AA4
:1038B0004E503C0AD8A405D0016E000E4E6E015049
:1038C0004D2A4D503C0AD8A407D0016E000E4D6E13
:1038D00001504C2AFBEC19F04C50180AD8A404D023
:1038E000016E000E4C6E01501200FFFFFFFF07C07B
:1038F00001F008C002F0000E046E470E036E95EC56
:103900001CF001C009F002C00AF0000E0C6E000E9F
:103910000B6E02D00B4A0C2A09500B5C0A500C5853
:10392000D8B01200FFFFF6D7FFFFFFFF01500302E0
:10393000F3CF05F0F4CF06F001500402F3CFF4FF0B
:10394000F36AF3500526F450062202500302F3CF27
:10395000F4FFF36AF3500526F450062205C001F087
:1039600006C002F01200FFFFFFFFE8CF8CF084904A
:103970008CC083FF8484000E00010001876F020E5B
:103980000001866F42EC1BF08494000E00010001E0
:10399000876F020E0001866F42EC1BF01200FFFFE2
:1039A000FFFF9268F70E936E000EBD6EE00EF26E92
:1039B000000EF16E070ED56ED768FD0ED66EB00EF6
:1039C000CD6EE60ECF6E9B0ECE6E9D808186120070
:1039D000FFFFFFFF09C001F00AC002F0036A0C6E8E
:1039E0008E0E046E0C500D6E000E056E0D50D4EC54
:1039F00018F001C009F002C00AF003C00BF0120079
:103A0000FFFFFFFFE8CF0DF084900DC083FF84849B
:103A1000000E086E020E076E76EC1CF08494000E09
:103A2000086E020E076E76EC1CF01200FFFFFFFF1F
:103A30007F0E1F141E101D10D8B406D0000E1D1AC4
:103A4000000E1E1A800E1F1A1DC01DF01EC01EF093
:103A50001FC01FF01200FFFFFFFF0001806F000E6C
:103A600000010001816F0001805103D000010001BD
:103A7000812B060E000100018165F8D71200FFFFBF
:103A8000FFFFE8CF82F0848082C083FF84842CEC27
:103A90001DF084942CEC1DF01200FFFFFFFFE8CF17
:103AA00003F0848003C083FF84845CEC1DF0849465
:103AB0005CEC1DF01200FFFFFFFF016E000E026EB6
:103AC000015001D0022A060E0264FCD71200FFFF4B
:103AD000FFFF800EC26E8E0EC16EC2801200FFFF0D
:103AE000013A30303A303030303030303000FFFF83
:020000040020DA
:08000000FFFFFFFFFFFFFFFF00
:020000040030CA
:0E000000FF220D0EFF0081FF0FC00FE00F402A
:00000001FF
