:10000000FA2F00308A000408840A82070034013481
:10001000C0344D3465346434693464346F347234BC
:1000200020345034723465347334733461346F3433
:100030000034563461346C346F3472343A340034E2
:1000400050345334493400342F2D312D332D352D78
:0C005000372D392D3B2D3D2D3F2D412D2E
:1009A200F10107307102031808000130F0007008ED
:1009B200F107D22C83160313861406159801803092
:1009C200831203139800333083160313990008002F
:1009D200F1018312031318168C1EED2C1A08F00075
:1009E2007008F10098181812710808008B01803005
:1009F20083160313810008308E00831203139701BC
:100A020007309F00F030831603138500F63086000E
:100A12000800F401F501701C142D7208F407031884
:100A2200F50A7308F50701300310F20DF30DFF3ECE
:100A3200031D152D01300310F10CF00CFF3E031DB8
:100A42001C2D71087004031D0C2D7508F101F107AE
:100A52007408F001F0070800F000432D3030080060
:100A620031300800323008003330080034300800DA
:100A720035300800363008003730080038300800BA
:100A820039300800700884000A30040203184E2D21
:100A920000308A0024300407820030300800FA0156
:100AA200FB017708F101F1077608F001F007473002
:100AB200F2000030F3000A257108F901F907700805
:100AC200F801F807FA01FB0179087B02031D6B2D7F
:100AD20078087A02031808000130FA070318FB0AA3
:100AE2000030FB07652D83120313A500A201A301A9
:100AF200A4012308250784000120003803198A2D48
:100B02000130A1002108A3070130A1002108A2079A
:100B12007A2DA401220824020318080024082507BC
:100B2200840001209B25013083120313A1002108B8
:100B3200A4078B2D83120313A00006142008FC00C7
:100B420004300310FC0CFF3E031DA22D7C08FD00A7
:100B52007D0885008615D124F730FC007C088312BD
:100B6200031386052008FC007C0885008615D12425
:100B7200F730FC007C088312031386050230F6006E
:100B82000030F70050250800F724DB24BE261C267F
:100B920003307425023084000120EF2513307425C0
:100BA200CC30EF251A30742583120313B201E924E5
:100BB20083120313AF002F08B200C730EF25831250
:100BC20003133208AF00B0012F08A1003008A200C1
:100BD2000430B1003108A3000A27D82D8312031371
:100BE200A000FE30FC007C0886052008FC000430D2
:100BF2000310FC0CFF3E031DF92D7C08FD007D084F
:100C020085008615D124F730FC007C08831203137B
:100C120086052008FC007C0885008615D124F73063
:100C2200FC007C088312031386050530F6000030B1
:100C3200F700502508000230FC007C0883120313E1
:100C420085008615F730FC007C0886050830FC001C
:100C52007C0885008615F730FC007C08860502308A
:100C6200F6000030F7005025831203138501861524
:100C7200F730FC007C0886050C30FC007C088500FF
:100C82008615F730FC007C0886050230F60000303D
:100C9200F70050250800710870040319792EF50138
:100CA200F50AF11B602E01300310F00DF10DFF3E2D
:100CB200031D552E0130F4007408F507522E7108F9
:100CC2007302031D662E70087202031C6E2E7008DA
:100CD200F2027108031CF303F30201300310F10C5A
:100CE200F00CFF3E031D6F2E0130F502031D602E36
:100CF2007308F101F1077208F001F0070800FB0127
:100D0200FC01770876040319B72EFD01FD0AF71BD3
:100D1200962E01300310F60DF70DFF3E031D8B2EAC
:100D22000130FA007A08FD07882E01300310FB0D0E
:100D3200FC0DFF3E031D972E77087902031DA32E9B
:100D420076087802031CAC2E7608F8027708031C9A
:100D5200F903F9027B1401300310F70CF60CFF3E85
:100D6200031DAD2E0130FD02031D962E7C08F701F6
:100D7200F7077B08F601F6070800FE30FC007C0846
:100D82008312031386051E30F6000030F70050254B
:100D92000330FC007C088312031385008615F730AC
:100DA200FC007C0886051E30F6000030F700502556
:100DB2000330FC007C088312031385008615F7308C
:100DC200FC007C0886051E30F6000030F700502536
:100DD2000330FC007C088312031385008615F7306C
:100DE200FC007C0886051E30F6000030F700502516
:100DF2000230FC007C088312031385008615F7304D
:100E0200FC007C0886050130F6000030F700502512
:100E1200080083120313A501A601A701A801360841
:100E2200AD003508AC003408AB003308AA00AE01AF
:100E3200A9012308FF3EA4002408AE0022082104D1
:100E42000319392F0A30F0000030F1002208F301B3
:100E5200F3072108F201F2074C26700883120313EC
:100E6200A4002408A50025082D25831203133A2F78
:100E72003030A4002E082A3E840024088313800008
:100E82000130AE02003022020A3003192102031C93
:100E9200712F0A30F6000030F7002208F301F30741
:100EA2002108F201F2076430F0000030F1004C2614
:100EB2007108F901F9077008F801F8078026760829
:100EC20083120313A4002408A60026082D258312EA
:100ED2000313A4002E082A3E840024088313772FCC
:100EE2003030A4002E082A3E8400240880000130FD
:100EF200AE0200302202643003192102031CA82F23
:100F02006430F6000030F7002208F301F3072108ED
:100F1200F201F207E830F0000330F1004C267108CC
:100F2200F901F9077008F801F8078026760883129C
:100F32000313A4002408A70027082D2583120313F6
:100F4200A4002E082A3E840024088313AE2F3030DA
:100F5200A4002E082A3E8400240880000130AE023C
:100F620003302202E83003192102031CDF2FE8308C
:100F7200F6000330F7002208F301F3072108F2011B
:100F8200F2071030F0002730F1004C267108F90109
:100F9200F9077008F801F807802676088312031310
:100FA200A4002408A80028082D2583120313A400F6
:100FB2002E082A3E840024088313E52F3030A40033
:100FC2002E082A3E840024088000A90129082A3E0E
:100FD2008400831380080319080029082A3E84002C
:100FE20000089B25013083120313A4002408A907DB
:0E0FF200E72FB301B401B501B6018301C52D8F
:02400E0018FF99
:00000001FF
