:04000000F0EF0FF01E
:1000070010016E9EA8FED701C0ADFF12000150037C
:1000170002F3CF05F0F4CF06F001500402F35006C7
:100027002602500302F350062605C001F006C0025F
:10003700F01200000E0C6E000E0B6E07C001F008E8
:10004700C002F0000E046E470E036E0AEC00F001CA
:10005700C009F002C00AF0000E0C6E000E0B6E0213
:10006700D00B4A0C2A09500B5C0A500C58D8B01216
:1000770000F7D7E2EC0FF0020E84EC00F058EC0129
:10008700F05EEC00F0D5EC0FF0000E256ECAEC0F19
:10009700F0256E2550236E246A2750241802E12686
:1000A700502318D8A403D0050E84EC00F026500482
:1000B700EC00F0ECD71968100E1A6E19689CEC0268
:1000C700F0196E12D0100E1A6E010E84EC00F0F5C6
:1000D700D7110E1A6E010E84EC00F0EFD71AC02864
:1000E700F0020E84EC00F00BD019500D0AD8B4F6CC
:1000F700D71D0AD8B4E7D7010AD8B4EAD7DED71292
:10010700000D6E0DC011F021D0000E0E6E11D081C2
:100117008C000E0F6E01D00F2A450E0F64FCD7819D
:100127009C000E106E01D0102A450E1064FCD70EED
:100137002A630E0E64ECD71150D8B406D0000E080F
:100147006EC80E076E1DEC00F011061166DDD712A2
:1001570000126650D00DC0D9FF0EC0DAFFDF501372
:100167006E0FC014F0010E156E142A02D0D8901528
:1001770036142EFCD7155013140009D8A43BD00110
:100187000E166E10C007F011C008F01DEC00F00D40
:10019700C0D9FF0EC0DAFFDF50136E0FC014F00195
:1001A7000E156E142A02D0D8901536142EFCD715CA
:1001B7005013140009D8A405D01604D8A402D001FE
:1001C7000E176E0DC0D9FF0EC0DAFFDF50136E0F8A
:1001D700C014F0010E156E142A02D0D890153614EB
:1001E7002EFCD7155013140009D8B4D1D71704D84B
:1001F700A4CED752D01204D8A455D00DC0D9FF0E23
:10020700C0DAFFDF50136E0FC014F0010E156E1425
:100217002A02D0D8901536142EFCD7155013140087
:1002270009D8B440D0010E166E10C007F011C008EF
:10023700F01DEC00F00DC0D9FF0EC0DAFFDF501340
:100247006E0FC014F0010E156E142A02D0D8901547
:1002570036142EFCD7155013140009D8B405D01640
:1002670004D8A402D0010E176E0DC0D9FF0EC0DA54
:10027700FFDF50136E0FC014F0010E156E142A0223
:10028700D0D8901536142EFCD7155013140009D862
:10029700A4D1D71704D8A4CED7000E176E000E1618
:1002A7006E010E01D0000E12001E68000E1D6E02B8
:1002B7000E226E000E1F6E000E206E000E216E00C5
:1002C7000E1C6E000E1B6E000E276E000E266E1E95
:1002D700689CEC02F01E6E1E28D8B403D11E500D88
:1002E7000AD8B4FFD0010E84EC00F0FBD0000E9BBF
:1002F700D0000E12D0226EEBD7000E9BD0225000FA
:100307000AD8B4FAD7010AD8B4F3D7030AD8B4EE97
:10031700D7DED7010E88D0010E206E8CD0010E8952
:10032700D02250000AD8B4FAD7010AD8B4F4D703B8
:100337000AD8B4EFD7CCD7020E76D0020EEDD7028B
:100347000E78D02250000AD8B4FAD7010AD8B4F5EB
:10035700D7030AD8B4F0D7BBD7030E65D0030EDC9A
:10036700D7030E67D02250000AD8B4FAD7010AD8AB
:10037700B4F5D7030AD8B4F0D7AAD7040E54D004DB
:100387000ECBD7040E56D02250000AD8B4FAD701A4
:100397000AD8B4F5D7030AD8B4F0D799D7050E43CE
:1003A700D0050EBAD7050E45D02250000AD8B4FAA8
:1003B700D7010AD8B4F5D7030AD8B4F0D788D70637
:1003C7000E32D0060EA9D7060E34D02250000AD816
:1003D700B4FAD7010AD8B4F5D7030AD8B4F0D77757
:1003E700D7070E21D0070E98D7070E23D02250002B
:1003F7000AD8B4FAD7010AD8B4F5D7030AD8B4F0A3
:10040700D766D7080E10D0080E87D7080E12D0224D
:1004170050000AD8B4FAD7010AD8B4F5D7030AD8D6
:10042700B4F0D755D7090E216E010E64D7090E74A3
:10043700D7090E1F6E000E5ED72250000AD8B4F8F7
:10044700D7010AD8B4F3D7030AD8B4ECD740D71DDD
:100457006618D02150640DF3CF19F0F4CF1AF020AD
:10046700500A0DF3501926F4501A221F5019241B55
:100477006E000E1A201C6E010E1D6E010E84EC001C
:10048700F028D01D04D8A423D72150640DF3CF1929
:10049700F0F4CF1AF020500A0DF3501926F4501A31
:1004A700221F501924266E000E1A20276E1C502773
:1004B7001802E11B502618D8A404D0020E84EC00C1
:1004C700F036D0000E1D6E030E84EC00F002D00053
:1004D7000E1D6E000E216E000E206E000E1F6E02A6
:1004E7000E09D71E50000AD8B409D7010AD8B41884
:1004F700D7030AD8B426D7010AD8B434D7070AD8FD
:10050700B442D7010AD8B450D7030AD8B45ED7018A
:100517000AD8B46CD70F0AD8B47AD7010AD8B48CE2
:10052700D7040AD8B494D7030AD8B4D1D7D0D612EF
:10053700008390838283848386000E086E010E07F2
:100547006E1DEC00F00F0E0E6E830E0D6E070E0F74
:100557006E000E116E050E106E000E126EACEC00E2
:10056700F0186E1804D8A402D0010E45D10F0E0E54
:100577006E830E0D6E060E0F6E000E116E050E10B9
:100587006E000E126EACEC00F0186E1804D8A402C0
:10059700D0020E31D10F0E0E6E830E0D6E050E0FAB
:1005A7006E000E116E050E106E000E126EACEC0092
:1005B700F0186E1804D8A402D0030E1DD10F0E0E2A
:1005C7006E830E0D6E040E0F6E000E116E050E106B
:1005D7006E000E126EACEC00F0186E1804D8A40270
:1005E700D00D0E09D18380839283848386000E0801
:1005F7006E010E076E1DEC00F00F0E0E6E830E0DD2
:100607006E070E0F6E000E116E050E106E000E12A5
:100617006EACEC00F0186E1804D8A402D0040EEBF0
:10062700D00F0E0E6E830E0D6E060E0F6E000E119E
:100637006E050E106E000E126EACEC00F0186E1800
:1006470004D8A402D0050ED7D00F0E0E6E830E0D60
:100657006E050E0F6E000E116E050E106E000E1257
:100667006EACEC00F0186E1804D8A402D0060EC3C6
:10067700D00F0E0E6E830E0D6E040E0F6E000E1150
:100687006E050E106E000E126EACEC00F0186E18B0
:1006970004D8A402D00E0EAFD083808382839483C4
:1006A70086000E086E010E076E1DEC00F00F0E0E91
:1006B7006E830E0D6E070E0F6E000E116E050E1077
:1006C7006E000E126EACEC00F0186E1804D8A4027F
:1006D700D0070E91D00F0E0E6E830E0D6E060E0F05
:1006E7006E000E116E050E106E000E126EACEC0051
:1006F700F0186E1804D8A402D0080E7DD00F0E0E85
:100707006E830E0D6E050E0F6E000E116E050E1028
:100717006E000E126EACEC00F0186E1804D8A4022E
:10072700D0090E69D00F0E0E6E830E0D6E040E0FDC
:100737006E000E116E050E106E000E126EACEC0000
:10074700F0186E1804D8B456D083808382838483CC
:1007570096000E086E010E076E1DEC00F00F0E0ED0
:100767006E830E0D6E070E0F6E000E116E050E10C6
:100777006E000E126EACEC00F0186E1804D8A402CE
:10078700D0110E39D00F0E0E6E830E0D6E060E0FA2
:100797006E000E116E050E106E000E126EACEC00A0
:1007A700F0186E1804D8A402D0000E25D00F0E0E34
:1007B7006E830E0D6E050E0F6E000E116E050E1078
:1007C7006E000E126EACEC00F0186E1804D8A4027E
:1007D700D0100E11D00F0E0E6E830E0D6E040E0F7D
:1007E7006E000E116E050E106E000E126EACEC0050
:0A07F700F0186E1804FF0E1200FF48
:101F9400000E016EAB889EAAFED7AECF01F0ABB2A5
:101FA400AB9801501200200EAC6E800EAB6E000E8A
:101FB400B86E000EB86E0C0EAF6E949C948E120028
:101FC400730ED36E070EB46E926893689468F00E25
:101FD400956E000EF26E849E939C1200276A266A08
:101FE400070EF66E000EF76E000EF86E0900F5CFC0
:0C1FF40028F0000EF86E00013DEF00F038
:020000040020DA
:08000000FFFFFFFFFFFFFFFF00
:020000040030CA
:0E00000000081E1EFF8381FF0FC00FE00F409F
:00000001FF
