:040000008A11F52F3D
:100CA6003234F00070088312031395000800803078
:100CB600831203139F002030831603139F008312B1
:100CC60003131F1408008316031307122C30831214
:100CD6000313960080309700083091009201CF30C0
:100CE600930008007530831603138F008B01803044
:100CF6008100073083120313990001308316031312
:100D06009100FF308500FF30870095010800F4014F
:100D1600F501701C942E7208F4070318F50A73087F
:100D2600F50701300310F20DF30DFF3E031D952E5E
:100D360001300310F10CF00CFF3E031D9C2E7108D0
:100D46007004031D8C2E7508F101F1077408F0017B
:100D5600F0070800FA01FB017708F101F1077608B0
:100D6600F001F0074730F2000030F3008A118A26BE
:100D76008A117108F901F9077008F801F807FA01F4
:100D8600FB0179087B02031DCA2E78087A02031834
:100D960008000130FA070318FB0A0030FB07C42ECF
:100DA600F401F501831203139F149F18D82E1E0811
:100DB600F200F3017208F4007308F500083003101E
:100DC600F40DF50DFF3E031DE22E831603131E08D8
:100DD600F200F3017208F4070318F50A7308F50721
:100DE6007508F101F1077408F001F0070800F50134
:100DF600F601710870040319312FF701F70AF11B88
:100E0600102F01300310F00DF10DFF3E031D052FCD
:100E16000130F4007408F707022F01300310F50DB6
:100E2600F60DFF3E031D112F71087302031D1D2FC2
:100E360070087202031C262F7008F2027108031C48
:100E4600F303F302751401300310F10CF00CFF3EAE
:100E5600031D272F0130F702031D102F7608F1011D
:100E6600F1077508F001F00708008A1175268A1146
:100E76008A115A268A118A1166268A118312031349
:100E8600A501A6012608803AFF0083307F02031DD4
:100E96004E2FE93025020318412F8A11D3268A11D5
:100EA600700883120313A0070318A10A7108A1078B
:100EB6000130FC007C08A4072408503A031D8B2F40
:100EC6005030F0000030F1002108F301F30720084C
:100ED600F201F2078A11FA268A11710883120313A6
:100EE600A301A3077008A201A207A401A001A10102
:100EF6002308F201F2072208F101F1078A1194276B
:100F06008A11C830F6000030F7008A11AD268A1122
:100F1600013083120313A5070318A60A0030A6079B
:100F2600452F7208803AFF0080307F02031D9D2FF7
:100F360090307102031CB02F7208803AFF00803097
:100F46007F02031DA82FB63071020318B02F54304C
:100F56007D020318B02F0130C02F7208803AFF00BF
:100F660080307F02031DB92F903071020318C42F01
:100F760050307D020318C42F0230F3007308FD07BA
:100F8600F12F7208803AFF0080307F02031DCD2FBB
:100F9600C3307102031CE02F7208803AFF008030D4
:100FA6007F02031DD82FF13071020318E02F0B309A
:100FB6007D02031CE02F0130F02F7208803AFF00FB
:100FC60080307F02031DE92FF1307102031CF12FDF
:100FD6000B307D02031CF12F0230FD027D088A11C1
:100FE60054260800A001A101A201A301A4018A11AF
:0A0FF6005326FD0083018A11382FF5
:02400E00D4F0EC
:00000001FF
